:020000040800F2
:1000000000000120196400086564000865640008A8
:1000100065640008750A00086564000800000000B7
:1000200000000000000000000000000065640008FF
:10003000656400080000000065640008150A0008F7
:10004000656400086564000865640008656400086C
:10005000656400086564000865640008656400085C
:10006000656400086564000865640008656400084C
:10007000656400086564000865640008656400083C
:1000800065640008656400086564000800000000FD
:10009000000000000000000000000000656400088F
:1000A000656400086564000865640008656400080C
:1000B00065640008656400086564000865640008FC
:1000C00065640008656400086564000865640008EC
:1000D00065640008656400086564000800000000AD
:1000E000656400086564000865640008000000009D
:1000F000000000000000000000000000656400082F
:10010000000000006564000865640008656400087C
:1001100000000000000000000000000000000000DF
:100120006564000865640008250A0008310A0008B3
:1001300065640008000000000000000000000000EE
:100140000000000000000000000000003D0A000860
:10015000656400086564000865640008656400085B
:1001600065640008656400080000000000000000ED
:10017000000000000000000000000000000000007F
:10018000000000006564000800000000000000009E
:100190006564000810B9034800F060B9024800F037
:1001A00021B900BFE5060008C90700080A4BD3F8CB
:1001B0007C31DB6993F89D0060B9D3F8A020013A47
:1001C000033208D8B3F8A400A0F50070B0FA80F0AC
:1001D0004009704700207047CC0500202DE9F04908
:1001E00090F807E0BEF1010F85B0044636D025D364
:1001F000BEF1020F1DD18388072B1AD12F4DD5F8E0
:100200007C31D0E902BCD969D1F8A00000218C452D
:1002100008BF83450DD2D4F810801BF1FF324CF19A
:10022000FF3312EB080643F100078F4208BF8642F6
:1002300025D305B0BDE8F04900F0BEBA00211F4843
:1002400002F094FDB0FA80F04009022320722046AB
:10025000A38005B0BDE8F04900F0CABA174BD3F847
:100260007C31DB69D3F8A010B3F8A430C360052259
:100270008160828005B0BDE8F04900F0B9BA012183
:100280002172A4F804E000212846CDE902BC02F066
:100290006DFDDDE902BC28B9204605B0BDE8F04996
:1002A00000F0FAB8064B00935A4643462846002110
:1002B00002F06EFD0028EFD12072EDE7CC050020A2
:1002C00095010008CB0701D50120704710B44908FB
:1002D0008124022201318471C271818010BC00F03E
:1002E000DBB800BF08B50F4B1A78042A15D8012ACD
:1002F000034602D000F060FAFEE70246002122F831
:10030000041F094909480B601146022305F0AAF9A8
:1003100020B9074B4FF400229A6108BD00F04CFA57
:10032000FEE700BF88000020CC040020D00400209D
:10033000000002400A4A117808B5034621B901219C
:1003400011701046984708E0064802781AB9012251
:100350000270984701E0044A1360002008BD00BF06
:10036000C4020020BC0000209000002008B5074B0C
:10037000074A1B680121117013B100F01DFAFEE756
:100380000448BDE80840FFF7D5BF00BF900000203B
:1003900088000020E5020008F0B40E4B0E4C0F4A16
:1003A0000F491A604FF4006700224FF400560725EA
:1003B000DF609E62DD6222701846F0BC5A609A606F
:1003C0001A615A619A61DA611A625A620A7005F01A
:1003D00009B900BFD0040020C40200200030014051
:1003E000BC00002010B5094C2378042B07D8084B1B
:1003F0001B6833B100F0E0F905232370FEE701200C
:1004000010BDBDE81040FFF795BF00BF8800002079
:100410009000002010B50D4C2378042B0BD80C4B0A
:10042000984209D00B4B984206D000F0C5F905233D
:100430002370FEE7037010BD074A1368002BF9D044
:1004400000211160BDE81040184700BF880000205F
:10045000C4020020BC0000209000002010B50C4C0D
:100460002278042A0AD8531E012B02D909490B68A5
:1004700033B100F0A1F905232370FEE7012010BD80
:1004800008600AB1184610BDBDE81040FFF76EBF06
:10049000880000209400002038B51F4C2378042BDE
:1004A0000FD81E4A9042014605D01D4A904202D004
:1004B00000F082F9FEE70A78012A04D000F07CF906
:1004C000FEE7012038BD8A88013A92B2B2F5807FFA
:1004D000F4D8144A106810B100F06EF9FEE723B1A9
:1004E000033B012B11D8116038BD0F4B0F4A196027
:1004F00003250F4825700431022305F0B3F838B9FD
:100500000C4B4FF400229A6138BD00F055F9FEE71C
:1005100000F052F9FEE700BF88000020C40200206E
:10052000BC0000208C000020CC0400209C00002097
:10053000D0040020000002403F4A1378A3B12DE907
:10054000F0413E4C23780025042B15700AD8032B6C
:1005500020D0042B38D0012B12D0022B05D000F074
:100560002BF9FEE7BDE8F0817047354A2570136826
:10057000002B5DD0334915600868BDE8F04118478D
:10058000304B1A689388591EB1F5807F40D900F02E
:1005900013F9FEE72C4B1B8813B100F00DF9FEE7B1
:1005A000284B2A481A6893880632022B38BF022348
:1005B00004251146257005F055F830BB244B4FF447
:1005C00000229A61BDE8F0811E4F224E3868FFF785
:1005D00021FF326882B1111D4FF0030E3A600223F1
:1005E000194A1A48356084F800E005F03BF8002805
:1005F000E4D000F0E1F8FEE7114B22701B68002BFD
:10060000B0D0BDE8F041FFF7B1BE00F0D5F8FEE78D
:10061000022B02F1060238BF0223022511460B48C5
:10062000257005F01FF80028C8D000F0C5F8FEE7D7
:1006300000F0C2F8FEE700BF98000020880000200C
:1006400094000020CC0400209C000020D004002056
:10065000000002408C0000200349044B08200122C6
:1006600088611A70704700BF0000024098000020A7
:1006700008B500F0A1F8024B05221A70FEE700BF92
:10068000880000200122042108B58280C271817196
:10069000FFF702FF0348FFF7E1FE034B00221A7049
:1006A00008BD00BFE5060008A20000200A4A127833
:1006B00010B5002102720224012284808171C2716E
:1006C000FFF7EAFE00B110BD044B05480322BDE868
:1006D00010401A70FFF7C2BEA0000020A100002049
:1006E000E506000810B5244C2378032B1AD881792D
:1006F00039B9012B0ED900F055FB642000F0D0F978
:10070000FEE71BB3032B11D000F04CFB642000F07C
:10071000C7F9FEE7C2793AB3012A1FD1012B19D0DC
:1007200002232370BDE81040FFF774BE134B1B7803
:100730008B42E9D1012B05D000F034FB642000F09E
:10074000AFF9FEE7BDE81040FFF748BDBDE8104037
:10075000FFF798BFBDE81040FFF7A8BF00F022FBED
:10076000642000F09DF9FEE7FFF796FE0448BDE81F
:100770001040FFF773BE00BFA1000020A0000020C2
:10078000E506000808B5094B1B7813B9084B1B7820
:100790002BB100F007FB642000F082F9FEE7FFF7C1
:1007A000FBFD0448BDE80840FFF758BEA10000204B
:1007B000A0000020E506000808B500F0F3FA642068
:1007C00000F06EF9FEE700BF10B5012104220024FD
:1007D00081808271C471FFF75FFE0348FFF73EFE20
:1007E000024B1C7010BD00BFE5060008A2000020EF
:1007F00008B5FFF751FE0348FFF730FE024B002219
:100800001A7008BDE5060008A2000020034B1B7803
:10081000022B00D070470248FFF7E4BDA200002081
:100820008506000810B5224C2378032B06D805292D
:1008300005D0022915D00639012909D910BD1D4B53
:100840001A780021012A2170F8D102221A7010BDF5
:1008500000F0A8FA4FF4FA7000F022F90423237094
:1008600010BDD0F87C311B79082BF1D1FFF79EFC2D
:100870000028EDD0104A13783BB1984205D000F023
:1008800091FA642000F00CF9FEE723781070022B37
:1008900009D013B90123237010BD00F083FA64203E
:1008A00000F0FEF8FEE70548BDE81040FFF79ABDEE
:1008B000A1000020A2000020A0000020AD0600083A
:1008C000002202214FF0FF3002F00EBE034B1B69E5
:1008D00013F0070F0CBF08201020704700080240DB
:1008E000464B02689A4200D0704703F584332DE9E5
:1008F000F04F5A6C424F434E434D42F480525A647B
:100900005A6C8BB002F480520392039A1A6B42F431
:1009100080021A631B6B03F48003049310230446C4
:100920004FF00108384605A94FF002090593052349
:10093000049ACDF81890CDF81C80CDF8208009934A
:1009400003F040FD05A93846E023CDF81C9005933F
:1009500003F038FD0823BB6105A938460027CDF810
:10096000188005934FF0C06B4FF4006A4FF40059A4
:100970004FF48038079703F025FD4FF48063234A36
:100980003260304633610193B760F760F761776298
:10099000C6F804B0C6F814A0C6F81890C6F82080AF
:1009A00002F00EFE019B1A496664402228462B6124
:1009B0002960AA60B463C5F804B0EF60C5F814A05C
:1009C000C5F81890EF61C5F820806F6202F0F8FD5D
:1009D0003A460A2125643A20AC6302F085FD3A20AC
:1009E00002F0B8FD3A460A213B2002F07DFD3B2093
:1009F00002F0B0FD0BB0BDE8F08F00BF0030014049
:100A000000000240280500207805002040640240D4
:100A10005864024008B502F039FDBDE8084000F016
:100A20004FB800BF014802F03FBE00BF28050020BC
:100A3000014802F039BE00BF7805002008B5034820
:100A400003F0CAFE024B01221A7008BD9C07002069
:100A5000AA000020054B1A7802B1FEE704494FF4C2
:100A60000030012248621A70704700BFA3000020C6
:100A700000ED00E0034B1A7802B9FEE700221A707D
:100A8000704700BFA30000200349044B4FF0005003
:100A9000012288611A70704700080240C8050020D2
:100AA000044B188028B9044A044B10704FF40052CC
:100AB0009A617047A6000020A800002000080240AC
:100AC00010B5164C2378B3B9154B1A8882B1154965
:100AD0000B8801339BB29A420BD8134B1878002233
:100AE0000A80A0B9114A01204FF00051187091619D
:100AF00010BD0B8010BD02F0D1FCB0F5FA7FE3D33E
:100B00000A4A4FF40051002391612370DCE7074942
:100B10001A704FF400538B6110BD00BFC805002050
:100B2000A6000020A4000020A80000200008024029
:100B300080B5824C98B0FFF78DFF40F2E7336360D9
:100B40002369002B00DBFEE7FFF784FF7C4B63602B
:100B5000FFF780FF7B4B63602369002B00DBFEE720
:100B6000794C7A4A236B43F004032363236B03F02D
:100B7000040306931368069AC3F30B0340F223425F
:100B8000934213D00CAD724C01220023294620461B
:100B90004FF440550D920E930C9503F013FC4FF05B
:100BA00000524FF08053A261A361FEE7DFF8A081FD
:100BB0000CAD00230126404629460F270D930F93C5
:100BC00010930C970E9603F0FDFBD8F8103003F04D
:100BD0000703B342D7D8D8F810301B07D3D402F09C
:100BE0003BFC236C5B4A43F080532364236C03F08B
:100BF00080530493049B136823F4404343F400435D
:100C0000136013680C9603F4404305934FF00209F8
:100C10004FF48003059A13930D96CDF84890FFF793
:100C200055FE40084FF0040AA822072314902846D6
:100C30001592CDF858A0179304F0C0F900B1FEE763
:100C40004FF4A0524FF480530990494607A80797E4
:100C5000CDF820900A920B9304F058FB074600B1A0
:100C6000FEE7504602F0A0FC236B3B48DFF8F8900B
:100C700043F001032363236B03F001030193019B02
:100C8000236B43F002032363236B03F002030293FD
:100C9000029B236B43F004032363236B03F00403E1
:100CA0000393039B236B43F008032363236B0D978C
:100CB00003F008030793294641F6FF73079A0C9344
:100CC0000E960F97109703F07DFB4FF6E7732946BA
:100CD00022480C9303F076FB4FF6FF7329464046FB
:100CE0000C9303F06FFB29461D481E4C03F06AFB72
:100CF0004FF4005A294640460D960E97CDF830A085
:100D000003F060FBC8F818A0FFF7BEFE00F02EF855
:100D1000FFF738FD00F040F8FFF70EFCFFF776FD17
:100D200099F800301BB189F800702670F2E723783B
:100D30005A1C042B2270EDD930BFEBE7003C024077
:100D400023016745AB89EFCD00380240002004E065
:100D50000008024000700040000002400004024011
:100D6000000C0240A9000020AA00002010B5074C8A
:100D700007492046012200F029F92046054900F0E4
:100D800085F92046BDE8104000F0CCB9CC05002024
:100D90002508000800000020014800F0CDB900BF80
:100DA000CC050020014800F043B900BFCC0500206D
:100DB0000368B3F1A04F00D0704770B586B002222F
:100DC000002503230A2401A94FF4C0560F480292BC
:100DD000049301960395059403F0F4FA0C4B596BB8
:100DE00041F080015963596C41F4804159645B6C56
:100DF00003F480432A46214600934320009B02F0DF
:100E000073FB432002F0A6FB06B070BD0000024059
:100E1000003802400368B3F1A04F00D07047064B82
:100E20005A6B22F080025A635A6C22F480425A6450
:100E3000432002F09BBB00BF00380240D0F85402B0
:100E400000F0E2BAD0F8540200F0EEBAD0F8540242
:100E500000F0FEBA08B5D0F8540200F001FB0030F3
:100E600018BF012008BD00BF704700BFF8B590F85B
:100E7000C431012B01D00020F8BD0F4D0023022208
:100E8000C5F8540203210446C0F8C8514FF0A047EA
:100E900008262846E960AA612B61EB612F60AE60ED
:100EA00003F0C4FB284604F081F80146204600F018
:100EB000A7FA0020F8BD00BF9C07002008B5D0F8B5
:100EC000C80103F0EFFB002008BD00BF08B5D0F853
:100ED000C80104F031F8002008BD00BF08B5D0F803
:100EE000C80104F03FF8002008BD00BF08B5D0F8E5
:100EF000C80104F05FF818B102280CBF02200120DD
:100F000008BD00BF08B5D0F8C80104F03DF80020C6
:100F100008BD00BFD0F8C80104F042B870B584B075
:100F2000D0F8C8019DF820609DF82450BDF82840F5
:100F300000960195029403F02DFB002004B070BDD3
:100F400008B5D0F8C80103F05FFB002008BD00BF62
:100F5000F0B585B0D0F8C8019DF828700B9EBDF89B
:100F600030509DF83440009701960295039403F0A9
:100F7000ABFB002005B0F0BDD0F8C80104F008B804
:100F800000207047D0F8C83101EBC10103EB8101AB
:100F900091F84F301BB981F856200020704781F836
:100FA00055200020704700BFD0F8C83101EBC101C7
:100FB00003EB810191F84F3013B991F85600704757
:100FC00091F85500704700BF02F06EBA70B370B56B
:100FD0000025044680F8C421C0F87C51C0F8805137
:100FE0003C220E4600F5C270294605F06FFA4FF418
:100FF0008072294604F1200005F068FA012340229E
:1010000025706570C4F8C051657784F8205184F864
:101010002251A370237784F82131A2710EB1C4F854
:10102000CC612046FFF722FF002070BD02207047F0
:1010300010B53C220446002100F5C27005F046FAC6
:101040004FF48072002104F1200005F03FFAD4F83B
:10105000C8110023012240202370A071C4F8C031C0
:101060006370637784F8203184F82231A27022778C
:1010700084F8212129B1D4F87C212046D361FFF7DF
:101080002DFF2046FFF71AFF002010BD19B1D0F840
:101090008031012B01D90220704700EB830201331C
:1010A000C0F880310020C2F87411704790F83A31CE
:1010B0008B4286BF80F8231100200220704700BFBA
:1010C00010B490F845418C4208D0FF2906D090F822
:1010D0005F418C420ED0FF2010BC704790F8464113
:1010E000944215D0FF2A13D090F85F418C4201D072
:1010F000FF29F0D190F86011914201D0FF2AEAD186
:1011000090F861219A4201D0FF2BE4D1012006E042
:1011100090F847419C4201D0FF2BE5D10020C0B29E
:10112000DAE700BF10B50446FFF7D0FE20460121E4
:10113000FFF726FF002010BD70B586B002238DF8A2
:101140001730037804460A2B2AD8DFE803F02C294D
:10115000396B29939CADB706C100D0F88031FBB143
:101160000022D0F87431C0F87C21197990F845211B
:10117000914200F0B580D0F878311979914240F071
:101180001A81C4F87C319B6820469847002840F0BB
:101190001281062323702046D4F8CC3103219847CE
:1011A000002006B070BD90F82231002BF8D001234A
:1011B0000370C820FFF708FF2046FFF7A3FEEFE704
:1011C0006420FFF701FF2046FFF790FE0523237000
:1011D00084F821010021204601F058FB8021607134
:1011E000204601F053FB94F8212194F82031014668
:1011F0000025A07921718DE82400029080222046EC
:1012000001F02EFB94F82101A67994F82031617940
:10121000009001952A460296204601F021FB00200D
:1012200006B070BD3C22002100F5C27005F04EF9F9
:101230004FF48072002104F1200005F047F9D4F842
:101240007C2100250123402125706570C4F8C05120
:10125000657784F8205184F82251A370237784F8AD
:101260002131A171002A9BD0D36820469847C4F849
:101270007C5195E74378072B92D8DFE803F05B5267
:101280003B93838D7D70D0F87C31002B00F09B80E8
:101290001B6998478DF817009DF81730002B7FF4D5
:1012A0007FAF0A2323707BE7D0F8CC31002B3FF4CB
:1012B00077AF012198470823237071E790F83B111D
:1012C00000F016FF00287FF46BAF0923237067E757
:1012D000D0F87C31002B3FF463AF5B6998475FE740
:1012E000D0F87821C0F87C31107988427FF44BAF78
:1012F000134646E7012100F0DBFD054600287FF498
:101300004FAF0220FFF760FE0326A07994F8212159
:1013100021790195012384F82031667002900092B2
:101320006CE7122100F0BEF800287FF439AF0223E9
:10133000637035E7082100F0B5F8054600287FF412
:101340002FAF94F82B2194F8210194F820312179C2
:1013500001950126A2710292667000904EE790F806
:10136000341199BB94F835310022012B84F82321E4
:10137000A1D00723237013E790F8331171BB072323
:1013800063700DE7B0F8381100F022FA00287FF4FE
:1013900007AF0523637003E790F8321139BB0623CA
:1013A0006370FDE6092100F013FA00287FF4F8AE1F
:1013B00004236370F4E6D4F8CC3107212046984723
:1013C0000C232370ECE60C230370E9E6FF2300F105
:1013D000200200F0EBFB0028C4D0E1E6FF2300F17F
:1013E000200200F0E3FB00287FF4DAAEC7E7FF231A
:1013F00000F1200200F0DAFB00287FF4D1AECEE746
:10140000C0F8C011704700BFD0F8C0210132C0F849
:10141000C02102780A2A00D07047D0F87C31002B16
:10142000FAD09B69184700BF027808B54AB9D0F8CE
:10143000CC21012180F822110AB10421904700201B
:1014400008BD0278012A04BF00220270002008BDF6
:101450000378012B04BF022303700020704700BFF4
:101460000378012B01D10220704710B50446FFF725
:1014700035FD2179204601F02DFA6179204601F0F1
:1014800029FAD4F8CC31002284F8222113B10521A5
:10149000204698472046FFF719FD032323700020BC
:1014A00010BD00BFF0B504468078B1F5807F28BF3D
:1014B0004FF48071012883B00D4615D0022802D068
:1014C000012003B0F0BD237F013B0A2BF8D8DFE8F1
:1014D00013F03400410057000D01640073009100C7
:1014E0009E00F100000120004FF0800E06274FF40F
:1014F0008076002104F12002022365832582207773
:1015000084F814E06775E6822183A260A37003B0BB
:10151000F0BD637F0133DBB2022B637740F20681BB
:10152000D4F8CC3120460621984700236377022067
:1015300001220023A2702377C3E7D4F8C031E3600F
:10154000627904F11401204601F02CF9022323777B
:101550000120B6E761792046FFF70EFD012800F073
:10156000EC80042800F00E81022800F02A81D4F8D3
:10157000C031E2689B1A632BC4BF0B2323779FE71C
:10158000D4F8C031E360228A2379A168204601F0B3
:1015900031F904232377012093E7D4F8C00163795C
:1015A000E0600125228AA1680095204601F00AF931
:1015B00006232846237784E761792046FFF7DCFC81
:1015C000012800F0CD80052800F0D080022800F02E
:1015D000EB80042800F0F180D4F8C031E2689B1A57
:1015E000632B7FF76DAF01200B23012823773FF496
:1015F00067AF9DE7D4F8C031E3600022237911463C
:10160000204601F0F7F808232377012059E72179D4
:101610002046FFF7B1FC012879D0042863D00528C3
:1016200000F0B380D4F8C031E2689B1A632B7FF7D7
:1016300047AF01200B23012823773FF441AF01225C
:101640000023A270237700287FF43BAF94F8230097
:1016500094F8223094F8206094F82110626A84F89B
:10166000246103EB0023082DA4F8263184F825110A
:10167000C4F8282148D994F82D0094F8296094F8EA
:10168000281094F82B5094F82A2094F82C30D4F891
:101690002E70C4F8327103EB002301EB062102EB3C
:1016A00005220020A4F82C11A4F82E21A4F8303132
:1016B00003B0F0BDD4F8C021E260012500226379B7
:1016C00000951146204601F07DF80A23284623772D
:1016D000F7E661792046FFF74FFC012817D0022872
:1016E0004DD004289ED10B2323779BE721792046F8
:1016F000FFF742FC012836D0052827D004287FF4C4
:101700006BAF0B23237767E7002003B0F0BDD4F85D
:10171000C031E1685B1A0D22632B2277C8BF00201D
:1017200088DC01220023A27023778FE72046FFF791
:10173000D5FB01202077A070C3E6638B227DB3B375
:1017400012064CBF03230523237710E7D4F8C031DA
:10175000E2689B1A632B4FF003003FF745AFE7E6C3
:101760000723237738E70923237735E70320D4F8C5
:10177000C031E2689B1A632B3FF736AFD8E60923E6
:1017800023774FE70B232377F1E6D4F8C031E268E3
:101790009B1A632BC8BF03203FF74CAF01220023E5
:1017A000A270237703208CE60523237714E7130622
:1017B0004CBF092307232377D9E60B232377022085
:1017C000D5E7627904F11401204600F0EBFFCEE684
:1017D0002DE9F04304468078B1F5807F28BF4FF4AF
:1017E0008071012883B00E4604F1200516D002282E
:1017F00003D0012003B0BDE8F083237F013B0A2B17
:10180000F7D8DFE813F033004000560014016300FE
:10181000720090009D00F70006011F004FF0800E3F
:1018200006274FF40071002202236683A5602682FA
:10183000207784F814E06775E1822283A37003B0F7
:10184000BDE8F083637F0133DBB2022B637740F2A4
:101850005A81D4F8CC31204606219847002363777B
:10186000022001220023A2702377C3E7D4F8C031FD
:10187000E360627904F11401204600F093FF022333
:1018800023770120B6E761792046FFF775FB012831
:1018900000F04D81042800F05681022800F07E817E
:1018A000D4F8C031E2689B1A632BC4BF0B232377A3
:1018B0009FE7D4F8C031E360228A2379A1682046EB
:1018C00000F098FF04232377012093E7D4F8C001A8
:1018D0006379E0600125228AA1680095204600F026
:1018E00071FF06232846237784E761792046FFF7B6
:1018F00043FB012800F02481052800F02A810228FA
:1019000000F03F81042800F04581D4F8C031E2683E
:101910009B1A632B7FF76DAF01200B2301282377E0
:101920003FF467AF9DE7D4F8C031E360002223792C
:101930001146204600F05EFF08232377012059E777
:1019400021792046FFF718FB01287ED004286BD0B0
:10195000052800F00781D4F8C031E2689B1A632B98
:101960007FF747AF01200B23012823773FF441AFD6
:1019700001220023A270237700287FF43BAF94F864
:10198000232094F8223094F8200094F8211084F851
:10199000360103EB022394F8242094F8257094F880
:1019A000260084F837119BB294F8271084F83A2166
:1019B000092E94F82820A4F8383184F83B7184F873
:1019C0003C0184F83D1184F83E210FD92A460027B6
:1019D000254609214FF01A0E06E010780244014412
:1019E0005078042889B23FD09942F6D3002003B042
:1019F000BDE8F083D4F8C021E260012500226379BC
:101A000000951146204600F0DDFE0A232846237784
:101A1000F0E661792046FFF7AFFA012815D00228D9
:101A200000F09480042896D10B23237793E7217943
:101A30002046FFF7A1FA012876D005286AD00428AD
:101A40007FF463AF0B2323775FE7D4F8C031E168FD
:101A50005B1A0D22632B2277C8BF002083DC012292
:101A60000023A27023778AE7107885F84001507828
:101A700085F84101907885F84201D07885F84301D6
:101A800092F804C085F844C1507985F845019079F1
:101A900085F84601D07985F84701107A85F8480124
:101AA00000260EFB07F8664526DA8B4224D910780B
:101AB000024401445078052889B2F4D1013608EB7C
:101AC000C60CA44410788CF8420150788CF843017D
:101AD00090788CF84401D0788CF8450192F8059004
:101AE000107900EB0920ACF8460190798CF8480198
:101AF00095F844C176B2D6E70137022F05F11A05F1
:101B00003FF474AF70E72046FFF7E8F90120207733
:101B1000A0706FE6D4F8C031E2689B1A632B4FF0D7
:101B200003003FF7FAAE9CE609232377EDE6638BCB
:101B3000227D4BB312064CBF032305232377AFE668
:101B400007232377E1E60B232377A9E609232377ED
:101B500001E70320D4F8C031E2689B1A632B3FF7FA
:101B6000DCAE7EE6D4F8C031E2689B1A632BC8BFB6
:101B700003203FF7F8AE01220023A2702377032051
:101B800038E605232377C0E613064CBF0923072355
:101B9000237785E60B2323770220DBE7627904F1C4
:101BA0001401204600F0FEFD7AE600BFF0B50446C1
:101BB0008078B3F5807F28BF4FF48073012885B00B
:101BC00004F1200515D0022802D0012005B0F0BD97
:101BD000217F01390A29F8D8DFE811F033004000ED
:101BE0005600E7006300720090009D00C700D60019
:101BF0001F0041F440714FF0800E062740F2094665
:101C00000222E1826383A5602382207784F814E0B6
:101C100067752683A27005B0F0BD637F0133DBB228
:101C2000022B637740F2F280D4F8CC3120460621B3
:101C3000984700236377022001220023A2702377B4
:101C4000C4E7D4F8C031E360627904F1140120469E
:101C500000F0A8FD022323770120B7E76179204631
:101C6000FFF78AF9012800F0D880042800F0FA80F4
:101C7000022800F01681D4F8C031E2689B1A632B69
:101C8000C4BF0B232377A0E7D4F8C031E360228AD6
:101C90002379A168204600F0ADFD042323770120BD
:101CA00094E7D4F8C0016379E0600125228AA16835
:101CB0000095204600F086FD06232846237785E719
:101CC00061792046FFF758F9012800F0B98005280E
:101CD00000F0BC80022800F0D780042800F0DD80EE
:101CE000D4F8C031E2689B1A632B7FF76EAF0120F6
:101CF0000B23012823773FF468AF9DE7D4F8C03168
:101D0000E360002223791146204600F073FD08238A
:101D1000237701205AE72179039220460293FFF7A7
:101D20002BF90128029B039A61D004283AD0052898
:101D300000F09B80D4F8C011E068091A63297FF78E
:101D400044AF01200B21012821773FF43EAF01264B
:101D50000021A670217700287FF438AF94F8211075
:101D600003292FD0002005B0F0BDD4F8C021E260D7
:101D700001250022637900951146204600F022FDDE
:101D80000A232846237721E76179039220460293AC
:101D9000FFF7F2F80128029B039A28D002285ED0B0
:101DA0000428C7D10B212177C4E721792046FFF70A
:101DB000E3F8012847D0052838D0042890D10B2318
:101DC00023778DE794F8200002388342A8BF0346AA
:101DD00098B240B10023E91802339BB2897802F827
:101DE000011B9842F7D80020107005B0F0BDD4F860
:101DF000C011E668891B0D2063292077C8BF002029
:101E0000A0DC01200021A0702177A7E72046FFF782
:101E100065F801202077A070D8E6638B227DB3B3EC
:101E200012064CBF03230523237724E7D4F8C031DF
:101E3000E2689B1A632B4FF003003FF759AFFBE6B4
:101E4000072323774CE70923237749E70320D4F8B6
:101E5000C031E2689B1A632B3FF74AAFECE60921D9
:101E6000217767E70B23237705E7E068D4F8C011F3
:101E7000091A6329C8BF03203FF764AF012200237A
:101E8000A27023770320A1E60523237728E7130612
:101E90004CBF092307232377EDE60B23237702208A
:101EA000D5E7627904F11401204600F07BFCE2E6FC
:101EB00030B503468078012883B011D0022802D0C3
:101EC000012003B030BD1C461B7F013B0A2BF7D815
:101ED000DFE803F029364DBF5A698491A3B214009C
:101EE000002205250224D98218771A751A835A838D
:101EF0009A601A825D759C7003B030BD637F0133B8
:101F0000DBB2022B637740F2B980D4F8CC312046A3
:101F10000621984700236377022001220023A27044
:101F2000237703B030BDD4F8C031E360627904F1A7
:101F30001401204600F036FC022323770120C0E77D
:101F400061792046FFF718F8012800F0B1800428D5
:101F500000F0B780022800F0C480D4F8C031E268F5
:101F60009B1A632BACDD0B2323770120A9E7D4F860
:101F7000C031E360228A2379A168204600F03AFC50
:101F80000423237701209CE7D4F8C0016379E06043
:101F90000125228AA1680095204600F013FC062343
:101FA000284623778DE761792046FEF7E5FF012873
:101FB00077D0052829D0022800F08680042800F078
:101FC0008C80D4F8C031E2689B1A632B7FF778AF1E
:101FD00001200B23012823779FD171E7D4F8C0316A
:101FE000E360002223791146204600F003FC082319
:101FF0002377012065E721792046FEF7BDFF012800
:1020000052D0042822D00528DBD10320D4F8C031D7
:10201000E2689B1A632B80DDDBE7D4F8C021E26025
:1020200001250022637900951146204600F0CAFB85
:102030000A232846237744E761792046FEF79CFF70
:10204000012822D0022816D00428BAD10B232377E6
:10205000B7E721792046FEF78FFF01280BD005282E
:10206000F2D1D4F8C031E2689B1A632B4FF0030021
:102070007FF753AFADE709232377A2E72046FEF7AA
:102080002DFF01202077A0701BE7D4F8C031E16854
:102090005B1A0D22632B22774FF000007FF73DAFD4
:1020A00097E7072323778CE70D2323770020ADE7FD
:1020B000638B227D5BB112064CBF0323052323777C
:1020C0004BE70B23237748E70523237779E71306AC
:1020D0004CBF0923072323773FE70B2323770220F5
:1020E00094E7627904F11401204600F05BFB34E7C9
:1020F00030B503468078012883B011D0022802D081
:10210000012003B030BD1C461B7F013B0A2BF7D8D2
:10211000DFE803F029364DBF5A698491A3B2140059
:10212000002209250224D98218771A751A835A8346
:102130009A601A825D759C7003B030BD637F013375
:10214000DBB2022B637740F2B980D4F8CC31204661
:102150000621984700236377022001220023A27002
:10216000237703B030BDD4F8C031E360627904F165
:102170001401204600F016FB022323770120C0E75C
:1021800061792046FEF7F8FE012800F0B1800428AE
:1021900000F0B780022800F0C480D4F8C031E268B3
:1021A0009B1A632BACDD0B2323770120A9E7D4F81E
:1021B000C031E360228A2379A168204600F01AFB2F
:1021C0000423237701209CE7D4F8C0016379E06001
:1021D0000125228AA1680095204600F0F3FA062323
:1021E000284623778DE761792046FEF7C5FE012852
:1021F00077D0052829D0022800F08680042800F036
:102200008C80D4F8C031E2689B1A632B7FF778AFDB
:1022100001200B23012823779FD171E7D4F8C03127
:10222000E360002223791146204600F0E3FA0823F8
:102230002377012065E721792046FEF79DFE0128DE
:1022400052D0042822D00528DBD10320D4F8C03195
:10225000E2689B1A632B80DDDBE7D4F8C021E260E3
:1022600001250022637900951146204600F0AAFA64
:102270000A232846237744E761792046FEF77CFE4F
:10228000012822D0022816D00428BAD10B232377A4
:10229000B7E721792046FEF76FFE01280BD005280D
:1022A000F2D1D4F8C031E2689B1A632B4FF00300DF
:1022B0007FF753AFADE709232377A2E72046FEF768
:1022C0000DFE01202077A0701BE7D4F8C031E16833
:1022D0005B1A0D22632B22774FF000007FF73DAF92
:1022E00097E7072323778CE70D2323770020ADE7BB
:1022F000638B227D5BB112064CBF0323052323773A
:102300004BE70B23237748E70523237779E7130669
:102310004CBF0923072323773FE70B2323770220B2
:1023200094E7627904F11401204600F03BFA34E7A7
:1023300030B503468078012883B011D0022802D03E
:10234000012003B030BD1C461B7F013B0A2BF7D890
:10235000DFE803F028354CBE59688390A2B1130022
:10236000002202245875198318771C759C70DA8234
:102370005A839A601A8203B030BD637F0133DBB2A7
:10238000022B637740F2B980D4F8CC312046062185
:10239000984700236377022001220023A27023774D
:1023A00003B030BDD4F8C031E360627904F11401A8
:1023B000204600F0F7F9022323770120C1E7617975
:1023C0002046FEF7D9FD012800F0B180042800F076
:1023D000B780022800F0C480D4F8C031E2689B1AAC
:1023E000632BADDD0B2323770120AAE7D4F8C0319E
:1023F000E360228A2379A168204600F0FBF90423D8
:10240000237701209DE7D4F8C0016379E0600125BE
:10241000228AA1680095204600F0D4F906232846B8
:1024200023778EE761792046FEF7A6FD012877D055
:10243000052829D0022800F08680042800F08C802E
:10244000D4F8C031E2689B1A632B7FF779AF012083
:102450000B23012823779FD172E7D4F8C031E360C2
:10246000002223791146204600F0C4F9082323777F
:10247000012066E721792046FEF77EFD012852D033
:10248000042822D00528DBD10320D4F8C031E2682B
:102490009B1A632B80DDDBE7D4F8C021E2600125C5
:1024A0000022637900951146204600F08BF90A233B
:1024B0002846237745E761792046FEF75DFD012830
:1024C00022D0022816D00428BAD10B232377B7E7ED
:1024D00021792046FEF750FD01280BD00528F2D1C6
:1024E000D4F8C031E2689B1A632B4FF003007FF7EA
:1024F00053AFADE709232377A2E72046FEF7EEFCB2
:1025000001202077A0701CE7D4F8C031E1685B1A85
:102510000D22632B22774FF000007FF73DAF97E746
:10252000072323778CE70D2323770020ADE7638B08
:10253000227D5BB112064CBF0323052323774BE7B3
:102540000B23237748E70523237779E713064CBF4E
:102550000923072323773FE70B232377022094E700
:10256000627904F11401204600F01CF934E700BF41
:1025700030B503468078012883B011D0022802D0FC
:10258000012003B030BD1C461B7F013B0A2BF7D84E
:10259000DFE803F0222F46B853627D8A9CAB0D0022
:1025A000022499601A8218779C7003B030BD637F53
:1025B0000133DBB2022B637740F2B980D4F8CC311F
:1025C000204606219847002363770220012200233A
:1025D000A270237703B030BDD4F8C031E3606279D4
:1025E00004F11401204600F0DDF8022323770120D6
:1025F000C7E761792046FEF7BFFC012800F0B180F3
:10260000042800F0B780022800F0C480D4F8C0315C
:10261000E2689B1A632BB3DD0B2323770120B0E71D
:10262000D4F8C031E360228A2379A168204600F003
:10263000E1F8042323770120A3E7D4F8C0016379EC
:10264000E0600125228AA1680095204600F0BAF8D2
:1026500006232846237794E761792046FEF78CFC11
:10266000012877D0052829D0022800F08680042888
:1026700000F08C80D4F8C031E2689B1A632B7FF79E
:102680007FAF01200B23012823779FD178E7D4F86F
:10269000C031E360002223791146204600F0AAF8F9
:1026A0000823237701206CE721792046FEF764FC9C
:1026B000012852D0042822D00528DBD10320D4F8E9
:1026C000C031E2689B1A632B80DDDBE7D4F8C021C0
:1026D000E26001250022637900951146204600F052
:1026E00071F80A23284623774BE761792046FEF7E5
:1026F00043FC012822D0022816D00428BAD10B238B
:102700002377B7E721792046FEF736FC01280BD066
:102710000528F2D1D4F8C031E2689B1A632B4FF040
:1027200003007FF753AFADE709232377A2E72046E5
:10273000FEF7D4FB01202077A07022E7D4F8C03147
:10274000E1685B1A0D22632B22774FF000007FF7C0
:102750003DAF97E7072323778CE70D2323770020EE
:10276000ADE7638B227D5BB112064CBF03230523CB
:1027700023774BE70B23237748E70523237779E774
:1027800013064CBF0923072323773FE70B23237747
:10279000022094E7627904F11401204600F002F867
:1027A00034E700BF30B585B00024082501910394BB
:1027B00011460094234622460295FEF7C9FB2046A7
:1027C00005B030BD30B590F8215185B0002D9DF891
:1027D000204002921D4618BF0024002301220191CF
:1027E0000092039429461A46FEF7B2FB002005B07A
:1027F00030BD00BF30B585B00024012502920191A3
:1028000003941946009523462A46FEF7A1FB20466D
:1028100005B030BD30B590F8215185B0002D9DF840
:102820002040029218BF0024012201910092194613
:10283000039402230022FEF78BFB002005B030BD7D
:1028400030B585B000240125029201910394194608
:1028500000952A460223FEF77BFB204605B030BDDB
:1028600070B584B09DF820609DF82450BDF82840D4
:10287000009601950294FEF751FB002004B070BD54
:1028800008B5FEF75DFB002008BD00BFD0F8C831D9
:1028900010B49C6884B1D0F8843113F400430FD095
:1028A000002303E0D2F88421120409D50133DBB2FE
:1028B000A34200EB8302F5D3FF23184610BC7047F8
:1028C00000EB830041F40041C0F8841110BC1846AD
:1028D000704700BF0E2907D800EB8100D0F8843183
:1028E000C3F30E03C0F88431002070470020704706
:1028F000D0F87C21F8B5D469227B012A58D006464D
:1029000032D3062A02D001252846F8BD94F80611D4
:10291000342202FB014797F89C30052B4BD0062B45
:102920000CD100231A4600F033FD0546002800F0C4
:10293000E180022800F0D980042844D00125D6F88F
:10294000C031D4F808219B1A002B68DD0225D4F889
:102950000C3101222273002BD6D028469847002341
:10296000C4F80C312846F8BDB4F804112368994224
:102970002ED2342303FB0143012093F89C2083F8DB
:102980009D00082ABFD801A353F822F0E5290008CA
:1029900007290008B72A0008832A0008F929000837
:1029A000472A000807290008072900083D2A0008CF
:1029B00000252846F8BD02FB0142A83200F0A0FC29
:1029C000A8B30428BAD1082387F89C300225B6E7BB
:1029D00000220125D0F8CC31A4F80421257302216E
:1029E000984791E7342303FB0143D6F8C021042024
:1029F00083F89C00C4F80821342505FB01423046C9
:102A0000AB32C9B200F012FC002844D1B4F8043152
:102A100005FB0344022384F89C30012574E796F8F3
:102A20002231002B92D0012D3FF46DAF8FE70123AF
:102A3000022587F89C3087F89D5080E70131A4F883
:102A40000411012560E7342505FB0142A832C9B213
:102A5000304600F055FC002859D1B4F8043105FB8C
:102A6000034595F8A82002F0FB02022A7FD0342209
:102A700002FB03420125013382F89C50A4F8043183
:102A800042E7342505FB01423046A032C9B200F0CE
:102A900089FB00285ED0022830D004287FF433AFB1
:102AA000B4F8043105FB03440223012584F89D306A
:102AB00084F89C5028E7C9B2304600F04BFB88BB35
:102AC000B4F80431342202FB0344032294F89E300C
:102AD00084F89D00003318BF012384F8CD3084F8BA
:102AE0009E0084F89C2001250EE7052387F89C3082
:102AF000012524E7012387F89C3020E7B4F804314E
:102B000005FB0344052384F89C300125FCE60228DC
:102B1000C3D1B4F8043105FB0344082384F89C3086
:102B20000125F1E6022830D1B4F80431342202FB49
:102B30000344012594F89E3084F89D50023B4FF0E9
:102B4000050218BF012384F89C2084F8CD3084F856
:102B50009E00D9E6B4F8042105FB024301320125A9
:102B600083F89D0083F89C50A4F80421CCE6D6F8A5
:102B7000C011D4F8086142F20F70891B81423FF600
:102B800076AF85F89C200125BEE604287FF4BBAE15
:102B9000B4F80431342202FB03440125022384F8F3
:102BA0009D3084F89C50AFE6D0F87C3170B5DC697C
:102BB000A37B022B024604D0032B1CD00BB10120B7
:102BC00070BD1046214600F03BF903281CD00028B8
:102BD000F6D122780132226006463425022105FB17
:102BE00000430130C0B2824283F89E1083F8CD606A
:102BF000F5D8002070BD0021FFF79AFB0028DED138
:102C0000E37BA373012070BD012102220023216018
:102C100084F89E2084F8CD30EBE700BF38B5D0F8BB
:102C20007C31DD696979044669B92979B1B9D4F88B
:102C30007C31D86928B103F041FCD4F87C31002202
:102C4000DA61002038BDFFF71BFE69792046FFF7E7
:102C500041FE297900236B710029E8D02046FFF757
:102C60000FFE29792046FFF735FE00232B71DEE7A2
:102C7000F0B5D0F87C1185B05023FF2209790546C4
:102C8000FEF71EFAFF2802D1022005B0F0BD014672
:102C90002846FEF70BFA4FF48870D5F87C6103F0F4
:102CA00005FCF06195F823311A2202FB0352044619
:102CB00092F84C11B2F84E2108064CBF6281228175
:102CC0004FF01A0202FB03534CBFE171A17193F85C
:102CD0005411B3F856310A0643D42381A17100265A
:102CE0002846C4F8046126736673A673FFF7CEFD09
:102CF000E17960712846FFF7C9FD20712846C4F8C4
:102D00000C6100F0B1F83146682204F19C0003F038
:102D1000DDFB95F82101278995F8203102970227DC
:102D2000A27961798DE881002846FFF799FDB4F812
:102D30000AE095F8210195F82031E27921798DE8B2
:102D400081402846FFF78CFD324621792846FEF760
:102D500019F9324661792846FEF714F9304605B074
:102D6000F0BDE1716381A179B9E700BF03780A2B57
:102D700001D000207047D0F87C31DB69342202FB9F
:102D8000013191F89D00B0FA80F04009704700BF12
:102D9000F8B590F822510DB90220F8BD05780A2D3A
:102DA000FAD1D0F87C51ED692F7B012FF4D1342773
:102DB00007FB015797F89CE0BEF1010FECD1D0F86A
:102DC000C04104F51C544FF0060E103485F80CE099
:102DD00087F89CE0C5F80841069CA5F80611C5F8DF
:102DE0000C4100F0D5FA0020F8BD00BF134B70B4C1
:102DF0001C68D4F87C31DB6993F85020042A02D097
:102E000070BCFDF7D9BCDA6DC3F89000B2F5007F55
:102E100028BF4FF4007200F1080105264FF4007539
:102E200092B283F85060A3F89850C3F894102046EB
:102E3000A3F89A2070BC1B79FFF702BDF4090020AB
:102E40008378012B02D00122FFF792BB30B400221D
:102E5000A125FE24C28202834383057544750122A5
:102E600030BCFFF785BB00BFD0F87C31054ADB6979
:102E700005495A650122996583F8502083F852204C
:102E8000002070475553424350403020D0F87C31E9
:102E9000F0B5DC6994F85030013B83B006460C2B4A
:102EA00011D8DFE803F0202F3E10546110860797F9
:102EB00013A0780023790D2204F17801FFF7C0FCFC
:102EC0000A2384F85030012003B0F0BDE179FFF708
:102ED0002FFA002800F090800428F4D10D2384F804
:102EE00050300120F0E70222012584F8611084F8B7
:102EF00050206379009504F154011F22FFF78AFCEA
:102F00002846E1E76179FEF737F8012879D00228F1
:102F100000F0BF800528D6D10C2384F85030012062
:102F2000D2E7D4F88C10002900F09E806289E06D11
:102F30002379824228BF024692B205253046A4F882
:102F40009A2084F85050FFF77BFC0120BCE72179E0
:102F5000FEF712F80128054600F092800528B2D14C
:102F60000B2384F85030AEE7D4F88C100029AAD097
:102F70002289E06D6379824228BF024692B2012520
:102F80000827A4F89A2084F8507030460095FFF77F
:102F900041FC284698E78378012B4BD0002230462D
:102FA0001146FFF7E5FA00288ED1012384F850304E
:102FB0008AE76179FDF7E0FF01282DD00228A9D129
:102FC000D4F88C30002B3FF47EAF062384F85030C9
:102FD000012079E72179FDF7CFFF01285DD0052891
:102FE0007FF471AFBCE7A179FFF7A2F9054650B3B2
:102FF00004287FF468AF71E7092384F8503001207A
:1030000062E7E36D93B194F96030002BB4BF032302
:10301000062384F8503057E7E36DB4F89A10D4F8DB
:103020008C205B1AE365002A3FF44DAF092384F836
:10303000503049E700232121FF2201754275C382E8
:1030400003834383AAE761793046FDF7ADFFC0F102
:1030500001026179D2B23046FDF794FF2A4630462C
:103060002179FDF78FFF7BE70422374B84F850204E
:1030700036481E60FDF7B6F900283FF424AF6FE72D
:1030800030462179FDF746FFB4F89A30984213D0C4
:10309000FEE7012084F8500016E7D6F87C3184F86A
:1030A0005000DD6984F8520029793046FDF732FF7F
:1030B0000D280CD0022007E7E36DD4F88C201B1AF2
:1030C000E3659AB10923284684F85030FCE6204B8A
:1030D000AA6F9A42EED1EA6FAB6D9A42EAD195F8A7
:1030E0008430002B14BF02200020EDE6B4F89810C5
:1030F000D4F89420091A89B20244A4F89810C4F8AC
:1031000094205BB14FF40071D4F89000FDF7DAF829
:1031100078B10B23284684F85030D5E60923C1F551
:10312000007184F85030D4F89000FDF7CBF82846B1
:10313000CAE6042384F850300448FDF753F9002808
:103140003FF4C1AEE5E700BFF4090020ED2D000813
:1031500055534253D0F87C31DB6993F85220012A51
:1031600005D0022A01D1FFF791BE0220704730B48A
:1031700000210A200225C3F8631083F86200D96594
:1031800083F86010C3F86710C3F86B10C3F86F10B2
:1031900083F86310104683F8525083F8502030BCF7
:1031A000704700BFF8B5D0F87C31DC6994F8523034
:1031B000012B1BD0022B17D11546FFF767FEA0B9D4
:1031C000D4F88C104B788E78CC780A781B0443EABC
:1031D0000623234343EA026301332B608A79CB79C8
:1031E00043EA0223AB80F8BD0120F8BD0022082687
:1031F00080250A202527E66584F86050022604F120
:10320000100584F86200C4F86320C4F86720C4F88D
:103210006B20C4F86F2084F86370184684F850302F
:1032200084F85260C4F88C50F8BD00BFF8B5D0F8EF
:103230007C31DC6994F85230012B3AD0022B02D059
:1032400002263046F8BD1546FFF720FE0646002848
:10325000F7D101462222284603F038F9D4F88C3001
:103260001B7803F01F036B70D4F88C301B785B095C
:103270002B70D4F88C305B78DB09AB70D4F88C30D1
:1032800053F8082F5B68C5F80730C5F80320D4F859
:103290008C3053F8107F58689968DB68AB612861FF
:1032A000EF606961D4F88C301B6AC5F81D30304678
:1032B000F8BD802700224E010A25242184F8607081
:1032C0001227C4F8672004F1100084F8625084F8D3
:1032D000646002251E46E165A4F86B2084F8652031
:1032E00084F8662084F8671084F8682084F8637096
:1032F000C4F88C0084F8503084F852503046F8BD41
:10330000F8B5D0F87C31DC6994F85230012B16D036
:10331000022B12D11546FFF7B9FD78B9D4F88C30DD
:103320009B7803F00F032B70D4F88C301B7B6B70F1
:10333000D4F88C305B7BAB70F8BD0220F8BD8027E1
:1033400000224D010E200A2684F860700327C4F87D
:103350006720E06584F8626004F11001022684F8B9
:103360006700C4F86B20C4F86F2084F8645084F8B8
:10337000652084F8662084F8682084F8637084F8F7
:103380005030184684F85260C4F88C10F8BD00BF65
:103390002DE9F041D0F87C4182B00192E2690093BE
:1033A00092F85240012C0AD0022C03D0022002B025
:1033B000BDE8F081FFF76AFD02B0BDE8F0810D467F
:1033C000342101FB05259DF807C0B5F8A4009DF840
:1033D00006E09DF805709DF804609DF8001082F8E5
:1033E000504003FB00F38025D3650A20002382F8B8
:1033F00060509DF80150C2F86330C2F86730C2F8DF
:103400006B3082F862004FF02808C2F86F30C2F8C3
:103410008C302046022382F8638082F865C082F8EF
:1034200066E082F8677082F8686082F86A5082F815
:103430006B1082F8523002B0BDE8F08108B502F09E
:10344000B5F8044BA3FB0030800900F09DF8002084
:1034500008BD00BFD34D621008B50B4B1A6842F48B
:1034600000721A601A6842F480621A601A6842F4A4
:1034700080721A60032000F025F80020FFF7DEFFBD
:10348000FDF71EFA002008BD003C0240024A136806
:1034900001331360704700BFAC000020014B186877
:1034A000704700BFAC00002010B582B00190FFF75C
:1034B000F5FF0446FFF7F2FF019B001B9842F9D38A
:1034C00002B010BD074AD3684FF6FF010B4000025F
:1034D00043F0BF6300F4E06043F400330343D36080
:1034E000704700BF00ED00E0184B70B4DC68C4F317
:1034F0000224C4F10706042E04F1040328BF0426A5
:10350000062B17D9033C0125A540013D2A40012384
:10351000B340013B1940A140002841EA02010CDB05
:1035200000F1604000F561400901C9B280F8001364
:1035300070BC704700221446E9E7054B00F00F000D
:1035400009010344C9B2197670BC704700ED00E070
:10355000FCEC00E000F01F0101234009024A8B400F
:1035600042F82030704700BF00E100E043092033FB
:1035700000F01F000122034902FA00F041F8230085
:10358000704700BF00E100E00138B0F1807F07D252
:10359000044B0022072158609A601046196070475A
:1035A0000120704710E000E0044A136804280CBFB3
:1035B00043F0040323F004031360704710E000E0BD
:1035C000002837D0F0B443688768C6680569446945
:1035D00081693B430246334300682B430226234361
:1035E00082F83560D569166A0768134C0B43516A37
:1035F0002B4333433C40042943EA04030DD00360CA
:10360000436923F00703194300230124416118464D
:10361000D36482F83540F0BC704702F1280132C90A
:103620002C4323430360436941F0040123F0070363
:103630001943E9E7012070473F8010F0F0B490F89B
:103640003440012C2DD004688668022580F835505E
:103650002568012725F0010580F834702560206871
:10366000402E20F48020206063600BBFA260A16028
:10367000E160E260236843F010032360236843F0B5
:1036800004032360636943F080036361236843F0AC
:1036900002032360236843F0010323600020F0BC91
:1036A00070470220F0BC7047AF4A0368934270B580
:1036B000044614D9AD4952F8540C583A8B4258D0AC
:1036C00018318B4200F03F8418318B4200F058854E
:1036D000850100F1BD8252684FF480014EE0A44A9A
:1036E000934216D9A349D2F8480302F552728B428D
:1036F00000F08B8018318B4200F0118518318B421D
:1037000000F04685800100F1A38212684FF4800129
:1037100080E0994A93424CD9984952F8540C583A4F
:103720008B4200F0608418318B4200F04E841831D7
:103730008B4200F07785810100F18A8252684FF454
:103740008001114240F0A4858C498D4A8B42526819
:1037500000F0468418318B4200F0068518318B4208
:1037600014BF4FF080714FF48021114200F0D483D8
:1037700099E0060700F16C8252688249114206D036
:103780005A6912065BD4784A934240F281807749A5
:103790007D4A8B42526800F083807C498B4200F066
:1037A000D88318318B4214BF4FF080714FF48021C1
:1037B00077E07749724A8B42106800F01F84183115
:1037C0008B4200F0F78318318B4200F007858501AA
:1037D00000F13E8212684FF48001114240F058859A
:1037E0006B49674A8B42126800F00F8418318B4294
:1037F00000F0A38418318B4214BF4FF080714FF456
:103800008021114200F0C9814DE0060700F12082BD
:1038100012685C49114240F03B8556495A4A8B4236
:10382000126800F0D58218318B4200F0B68318314F
:103830008B4214BF4FF080714FF48021C9E25A6966
:103840004A4922F080028B425A6100F0C7834F4AF6
:10385000934200F0C1834F48834214BF4FF480006D
:103860004FF480304849A26CC860E16C042041F0FC
:1038700002010025E16484F8345084F83500002A00
:1038800085D0204690472368374A93423FF67FAF62
:10389000374A9342C1D8384A93423FF655AF9FE723
:1038A0003D4911422CD01A68900725D51A682E4937
:1038B00022F002028B421A6033D92C4A934200F064
:1038C0006F831832934200F06B843248834214BFF6
:1038D0004FF080704FF480202B49A26CC860E16CDF
:1038E000042001430025E16484F8345084F8350055
:1038F00032B12046904723681B4A934240F24285EA
:103900001A49214A8B4252684AD020498B4200F022
:10391000178318318B4214BF4FF080614FF4801130
:103920003FE0134A934240F2168102F556729342E9
:1039300000F03C831832934200F03B8417488342E6
:1039400014BF4FF080704FF480200F49A26C886044
:10395000E16C042001430025E16484F8345084F8CC
:103960003500002AC5D137E2586402407064024035
:10397000B86002401064024058600240706002402B
:103980000060024001008000006402408864024040
:1039900010600240A06402400400800040640240C5
:1039A0001021114233D19D499D4A8B42526800F04B
:1039B0009D809C498B4240F081804FF40061114210
:1039C00014BF01220022002A00F087801A68D10665
:1039D00040F183801A68520340F18A80924A9342F0
:1039E00040F2F6801832934200F0E282183293429D
:1039F00000F0EB838D498B4214BF4FF000614FF410
:103A00000011874AD160FCE0102111424DD01A68A4
:103A1000110744D51A68520315D5834A934240F2E0
:103A2000ED811832934200F0CB821832934200F0BD
:103A3000EA837E498B4214BF4FF080614FF48011BE
:103A4000774AD160F2E11A68D00503D41A6822F0EF
:103A500008021A60744A934200F2FE82744A93424A
:103A600000F21682734A934240F23783183293422F
:103A700000F0C2831832934200F0F1836E498B420A
:103A800014BF4FF080614FF480116C4AD160312235
:103A900084F83520226C12B1204690472368624A90
:103AA000934280D8624A934218D965495C4A8B4256
:103AB00012681BD018318B423FF47FAF18318B4214
:103AC00014BF4FF000614FF4001178E71B681D032D
:103AD00003D5E36B002B40F09C8070BD554A9342A8
:103AE0006FD95849554A8B425268E3D1202166E785
:103AF0001A68D00503D41A6822F010021A604A4AE4
:103B0000934200F285824A4A934200F29B81494ADD
:103B1000934240F2B2821832934200F04E83183240
:103B2000934200F093831832934214BF4FF0006227
:103B30004FF40012414BDA60E26CE36BE264112156
:103B4000002284F8351084F83420002BC5D020469C
:103B5000BDE870401847374A934200F2BF813A4AA5
:103B6000934200F0F2821832934200F03F833748CC
:103B7000834214BF4FF080704FF480202F49A26C15
:103B80008860E16C042001430025E16484F834502E
:103B900084F83500002A7FF4ACAE2B49274A8B42CB
:103BA000126800F0298218318B4200F0C38218316C
:103BB0008B4214BF4FF080614FF4801111427FF4AB
:103BC00026AF21491D4A8B4212687FF473AF8DE7FF
:103BD000174A934200F24981164A934240F22A82E0
:103BE0001832934200F0E3821832934200F031839E
:103BF00011498B4214BF4FF000614FF400110F4A7E
:103C0000D1601A6816033FF561AF636C002B3FF477
:103C100064AF2046BDE87040184700BF70640240A2
:103C2000006402408864024058640240A06402407C
:103C3000B860024058600240A0600240006002404C
:103C40001064024070600240106002404060024018
:103C50001A68550726D51A68BF4922F004028B421C
:103C60001A604CD9BD4A934200F09C8118329342AD
:103C700000F09A82BA4883420CBF4FF400204FF004
:103C80000070B849A26CC860E16C042041F00101E9
:103C90000025E16484F8345084F83500EAB1204608
:103CA00090472368AC4A934217D8AF4A934248D80A
:103CB000AE4A93427AD9AE49AE4A8B42526800F07E
:103CC000968118318B4200F07D8118318B4214BFF0
:103CD0004FF480014FF4803133E5A049A14A8B4273
:103CE00052683FF44AADA4498B4200F0BB821831C0
:103CF0008B4214BF4FF480014FF480313EE59A4A65
:103D0000934230D902F55672934200F04D81183239
:103D1000934200F05482994883420CBF4FF4002034
:103D20004FF000708F49A26C8860E16C042041F074
:103D300001010025E16484F8345084F83500002A3C
:103D4000ADD18F49874A8B4212683FF462AD18317A
:103D50008B4200F0208318318B4214BF4FF4800156
:103D60004FF4803156E5814A934200F29781854AAB
:103D7000934200F0E8811832934200F03A82824880
:103D800083420CBF4FF400204FF000707949A26CC1
:103D90008860E16C042041F001010025E16484F8B1
:103DA000345084F83500002A7FF479AF7549714AA0
:103DB0008B42126800F0268118318B4200F0DF82BE
:103DC00018318B4214BF4FF480014FF4803104E569
:103DD0006E4911427FF467AD6949624A8B421268AD
:103DE0003FF412AE18318B4200F0D48018318B4270
:103DF00014BF4FF080614FF4801106E65A4A934297
:103E000059D85A4A934240F279811832934200F0CD
:103E1000F5811832934200F01F825D498B4214BF36
:103E20004FF080614FF48011524AD1601A68160336
:103E30007FF52DAE1A6815037FF52CAE412284F86C
:103E4000352027E602F55672934200F07181183250
:103E5000934200F0C0811832934214BF4FF00062C9
:103E60004FF400123F4B9A6066E602F55672934299
:103E700000F067811832934200F0AA813F498B42DB
:103E800014BF4FF000614FF40011364A9160B8E65C
:103E900002F55672934200F060811832934200F0AE
:103EA000B88136498B4214BF4FF080614FF48011C6
:103EB0002C4A9160EBE502F55672934200F04F8177
:103EC0001832934200F0A8812C498B4214BF4FF066
:103ED00080614FF48011234A9160A7E71832934222
:103EE00000F046811832934200F0AA8128488342AC
:103EF00014BF4FF080704FF480201E49A26CC86040
:103F0000E16C042001430025E16484F8345084F816
:103F10003500002A7FF4EDAC1549164A8B425268F1
:103F200068D018318B4200F01C8118318B4214BFCD
:103F30004FF080614FF4801111427FF468ADD0E5FD
:103F40004FF480612DE580053FF582AE5268402137
:103F500014E44FF48071A4E4586402407064024099
:103F6000A064024000640240B86002405860024011
:103F70007060024000600240886402404064024079
:103F80001064024010600240406002400400800063
:103F9000A06002404FF4806137E54FF4807118E76C
:103FA000B24899E408206CE60820BBE6AF48CCE4B0
:103FB000202126E581053FF54BAE126840210CE437
:103FC00010213DE54021FFF7BCBB86053FF540AE23
:103FD00052684021FFF7B5BB402043E4A44841E4C8
:103FE000A249FFF7C2BB05073FF532AE5268A049B0
:103FF000FFF7A7BB10219FE71021DFE506073FF57C
:1040000027AE12689A49FFF7E8BB9849FFF7F9BB5A
:10401000984A934200F08A801832934200F0D2808E
:104020001832934214BF4FF000624FF40012924BCB
:10403000DA6081E5914A934200F08B801832934216
:1040400000F0ED808E498B4214BF4FF000614FF4B9
:1040500000118C4A9160D4E5864A93427BD0183295
:10406000934200F0CD8088498B4214BF4FF08061AD
:104070004FF48011804AD16009E5804A934266D0AE
:104080001832934200F0C2801832934214BF4FF0AE
:1040900000624FF400127B4B9A604DE51832934258
:1040A00068D01832934200F0CE80784883420CBF2B
:1040B0004FF400204FF000707249A26CC860E16CB0
:1040C000042041F001010025E16484F8345084F8B3
:1040D0003500002A7FF4E3ADEDE5684A93424BD00A
:1040E0001832934200F0A68065498B4214BF4FF00E
:1040F00080614FF48011634A9160C8E45F4A934243
:104100003CD01832934200F098805D498B4214BF36
:104110004FF080614FF480115A4A916086E6850520
:104120003FF596AD12684021FFF774BB20227EE771
:10413000202297E64FF4806140E54FF48071FFF74D
:1041400060BB2021A1E6082020E6484816E5202291
:10415000A1E720217DE710218CE71021A8E610219E
:10416000B9E64FF48061E7E64FF48071FFF7FDBADE
:104170003E48C2E608209FE71021BCE71021CBE7AC
:1041800001033FF565AD52684FF48031FFF7F6BA91
:1041900001033FF55DAD12684FF48031FFF73ABB84
:1041A0004FF48070FFF798BB4FF4007069E5202151
:1041B00025E54FF48070FFF7C8BB2022BAE44FF426
:1041C0000070AFE54FF4006231E74FF4006118E48E
:1041D0004FF4006159E64FF4006243E600033FF5F7
:1041E00037AD12684FF48031FFF7F7BA4FF48070A3
:1041F000C4E44FF40070C9E5102146E4102113E631
:104200004FF4806136E74FF4806119E44FF40062A7
:1042100041E74FF480614BE64FF480615BE64FF479
:10422000006116E700033FF513AD52684FF480318B
:10423000FFF787BA4FF480615DE74FF480616BE769
:104240004FF4807059E64FF4007035E74FF4006288
:1042500070E44FF40061D2E44FF48061E4E54FF480
:10426000806112E44021FFF789BA00BF040080009A
:10427000010080007064024000640240106002404F
:104280004060024000600240A0640240A060024022
:104290005A6911067FF577AA5A69404922F08002CF
:1042A0008B425A611ED93E4A93425CD018329342E7
:1042B0005FD03C48834214BF4FF480004FF48030FD
:1042C0003949A26C8860E16C042041F002010025AC
:1042D000E16484F8345084F83500002A7FF4D1AAD0
:1042E000FFF79BBA314A93421ED9183293423ED00F
:1042F0001832934241D02E48834214BF4FF48000BD
:104300004FF480302B49A26CC860E16C042041F06E
:1043100002010025E16484F8345084F83500002A55
:104320007FF4AFAAFFF710BA234A93421DD0183288
:10433000934220D02148834214BF4FF480004FF4B1
:1043400080301C49A26C8860E16C042041F00201BD
:104350000025E16484F8345084F83500002A7FF4A5
:1043600090AAFFF73DBA1648AAE71548E9E71448AE
:10437000C8E74020A4E74020E3E74020C2E740210F
:10438000FFF72BBA054A93423FF626AD074A934200
:104390003FF6C2AD01E44021FFF73CBAB8600240ED
:1043A00010640240406402400064024058600240D1
:1043B000A060024000600240106002404060024085
:1043C000010080002DE9F04FD1F800C0DFF8C0E116
:1043D00083B000254FF0010803E00135102D00F0F7
:1043E000838008FA05F303EA0C029342F5D14E6884
:1043F00026F0100ABAF1020F79D04FEA45090324DA
:10440000D0F800B004FA09F4E44306F003070BEA1D
:10441000040B07FA09F70AF1FF3A47EA0B07BAF16A
:10442000010F076040F28A80C7688B683C4003FA3E
:1044300009F32343C360F300CFD5504B4F4C5B6C63
:1044400043F480436364636C25F0030909F18049F8
:1044500003F4804309F59C39019305F00303019CA3
:10446000D9F808409B000F279F4024EA0704444FD7
:10447000B84276D007F58067B84274D0414FB84251
:1044800074D0414FB84275D0404FB8420CBF04279A
:10449000052707FA03F32343C9F80830DEF8003094
:1044A000D443F70354BF23401343CEF80030DEF863
:1044B0000430B70354BF23401343CEF80430DEF872
:1044C0000830F70254BF23401343CEF80830DEF81B
:1044D0000C30B60205F1010554BF23401343102DE3
:1044E000CEF80C307FF47DAF03B0BDE8F08F4FEA1B
:1044F000D50900EB890905F00704D9F82070A4005C
:104500004FF00F0A0AFA04FB27EA0B0A0F6907FAB1
:1045100004F444EA0A04C9F820404FEA4509032498
:10452000D0F800A004FA09F4E44306F003070AEA0D
:10453000040A07FA09F747EA0A070760876807EAE3
:10454000040ACF6807FA09F747EA0A078760D0F834
:1045500004A0C6F300172AEA0303AF401F434760D5
:1045600062E7002397E708FA03F394E7022707FAC4
:1045700003F390E7032707FA03F38CE700380240C0
:104580000000024000080240000C024000100240FF
:10459000003C01402DE9F04F90F8504285B0012CCD
:1045A0009DF838709DF83CE0BDF840C003D1022072
:1045B00005B0BDE8F08F01EBC10400EB84040646B2
:1045C00002F07F0AD0094FF0010B86F850B20025A7
:1045D00084F84C3084F84D1084F853E084F850701F
:1045E00084F84EA084F84F003068A4F84AC0A56350
:1045F000E563CDF808C08DE8804001F073FC86F8D3
:10460000505205B0BDE8F08F90F85032012B01D127
:104610000220704710B50123044680F8503200682C
:1046200001F0F6FD002084F8500210BD002836D0BD
:104630002DE9F041032307468AB080F85132044641
:10464000FCF7B6FB386801F013FB54F8106B0FCC85
:104650006D460FC50FCC0FC523682B6007F104080A
:1046600098E80E003D46304601F09EFA0121386878
:1046700001F006FB55F810EB0FCD6E460FC60FCDBF
:104680000FC62368336098E80E00704601F030FBD7
:104690000123002087F851320AB0BDE8F0810120E3
:1046A000704700BF68B110B50323044680F851324B
:1046B000FCF7B0FB206801F0DBFA002084F851021F
:1046C00010BD0120704700BFF0B5CC009DF814E08C
:1046D000069FBDF81C60651800EB8505BEF1000F54
:1046E00014BF4FF0020C4FF0030C85F84F2085F8F3
:1046F000533085F854C09DF82050032B1BD8DFE8B9
:1047000003F0024D3931BEF1010F14D19AB963188B
:1047100000EB8303002E58D1022283F856E0631881
:1047200000EB830393F848E083F85420BEF1020FB6
:1047300001D083F85150631800EB8303242283F8DF
:104740004D10002402FB01015F63027C9E63006840
:1047500083F84840DC6383F849403431BDE8F040D9
:1047600001F038BC631800EB83034ABB93F8565042
:1047700015BB17E0CAB9621800EB820292F856E046
:1047800092F848C0BEF1000F18BF9E46BCF1020F60
:1047900082F854E0CFD082F85150CCE7631800EB98
:1047A0008303002283F85420C5E7631800EB8303DA
:1047B00093F85520002AF5D0022283F85420BAE756
:1047C00093F85520002AEDD0F6E793F85620002AFA
:1047D00018BF0222A3E700BF2DE9F04F056885B09E
:1047E0000446284601F080FA012802D005B0BDE851
:1047F000F08F206801F074FA0028F7D0206801F0EB
:104800006FFA10F0100F206840F0FD8001F068FA98
:10481000800000F1ED80206801F062FAC101266895
:1048200000F1C080304601F05BFA030700F1B3806D
:10483000206801F055FA10F0007F206819D101F0CE
:104840004FFA10F4001F20681CBF4FF4001343619F
:1048500001F046FA10F4801F20681CBF4FF480134B
:10486000436101F03DFA8307C0D5236802225A61F3
:10487000BCE701F0C7FCA26883462068002A00F06C
:10488000868005F5A06500264FF0010848E000F598
:10489000A0634FEA491E0EEB03070193BB6859075B
:1048A0006ED4BB689B0600F11781BB68190700F145
:1048B000C381BB685B0500F1D581BB68990500F138
:1048C000AE81BB68DB0740F17C8123694FEAC90CEC
:1048D00063B10CEB090304EB8303D7F810A0996BC9
:1048E000CAF3120AA1EB0A0AC3F83CA00CEB0903B5
:1048F00004EB83034FF0000C83F84980C3F844C0F5
:10490000C7F8088093F8533013F0FD0F00F00A82C7
:10491000032B00F0B2820136964205F1200536D213
:1049200008FA06F313EA0B0FF5D02B681F045FFAA1
:1049300086F9ACD400F5A06707EB4917BB685B07A5
:104940001ED4BB68990640F1958009EBC90A202363
:1049500004EB8A0ABB609AF85130012BDBD1FB686B
:10496000042243F002038AF849204946FB6001F023
:104970004FFC4FF002038AF84830A2682068CAE76B
:104980000423BB60FB6843F00203FB60C3E74FF006
:104990000073436153E72046FCF750FA2068082370
:1049A000436146E7D6F840340293D6F84034039387
:1049B000039B23F02E030393029B9A07374607D5E8
:1049C000029BDB0700F16481039B43F00203039326
:1049D000029B180700F183802668029B9A0603D584
:1049E000039B43F020030393039BC7F8403419E76C
:1049F0002046FCF72FFA002800F0D08020684FF006
:104A00000053436108E7836923F010038361036A5D
:104A1000C3F34342022A28D103F00F0600F5A06237
:104A200002EB4612A6491769394029B1116821F0F5
:104A3000804141F000411160C3F30A17AFB106EBAA
:104A4000C60604EB8606716B79B13A4601F032F97D
:104A500096F85510726BF36B81F0010186F85510D2
:104A60003A443B4420687263F363836943F0100364
:104A70008361CBE6BB685B0650D54FEAC90A0AEBF7
:104A8000090304EB8303996B71B13A69B3F84AE007
:104A9000C2F3C942013222F001020EFB02F291423E
:104AA00094BF491A891AD9630AEB0903FA6804EB1F
:104AB00083034FF0040E83F849E042F002024FF006
:104AC000000EC3F844E04946FA6001F0A1FB402320
:104AD000BB60A26820681EE72023BB601BE7039B26
:104AE00043F008030393029B590762D5A169022989
:104AF00000F02481E368032B04BF4EF66023C6F860
:104B000004342046FCF7A2F9E3682668002B7FF402
:104B100064AFB36943F00053B3615EE7BB6813F45D
:104B200000737CD1B968C90700F11381BB681B070A
:104B300000F12381BB68D90640F1C4804FEAC90A5D
:104B40000AEB090304EB83039B6B93B13A690AEB0D
:104B5000090104EB8101C2F3C9420132B1F84AE014
:104B600022F001020EFB02F2934294BFDB1A9B1A61
:104B7000CB63FB68CA4404EB8A0A002243F00203B9
:104B8000CAF844204946FB6001F042FB032210238F
:104B90008AF849202068A268BB60BCE6D5F840349A
:104BA000206823F02E03C5F84034012101F030F9CC
:104BB00024E7D6F8403423F02E03C6F840342668A4
:104BC000A7E7BB6899076BD54FEAC90C0CEB090244
:104BD00004EB8202FB6892F8492023F00203012AC9
:104BE000FB6000F02781052A00F05B81082A07D8C6
:104BF0004FF4A473D340DB4313F0010300F0FD80B6
:104C00000CEB090304EB83030222BA60204693F8FD
:104C100048204946FCF728F9A26820687BE6FB6833
:104C200043F00203FB60494601F0F2FA4FF40073CF
:104C3000BB60A26820686EE6FA6809EBC90304EB62
:104C4000830342F002024FF0050EFA6083F849E058
:104C500010220823BA604946BB6001F0D9FAA26865
:104C6000206858E6FB6843F002034946FB6009EB05
:104C7000C90901F0CDFA04EB8903102008224FF492
:104C80008061B86083F849202068A268B96042E674
:104C9000B36923F00053B3612046FCF7D3F893E6E1
:104CA000BB681B0600F10681BB68D9067FF533AEF1
:104CB000FB68242202FB094A43F0020300225FE75B
:104CC0000000F81FBB681B066AD54FEAC90A0AEB49
:104CD000090304EB83039A6B8AB13B69242101FB2E
:104CE0000941C3F3C9430133B1F84AE023F001039A
:104CF0000EFB03F39A4294BF921AD21ACA63FB685E
:104D000043F00203FB60494601F082FA0AEB090313
:104D100004EB83030622802183F849202068A268DF
:104D2000B960F8E5FB6843F00203FB60494601F017
:104D30006FFA1023BB60A2682068ECE5029B206834
:104D400003F4C023B3F5802F18BF012101F060F8F0
:104D5000D7E6FA6809EBC90A04EB8A0A42F00202B4
:104D6000CAF844304946FA6001F052FAC7F80880A0
:104D7000A26820688AF84980CDE50823BB60FB68FB
:104D800043F00203FB60494609EBC90901F040FA10
:104D900004EB8903052283F849202068A268BAE55C
:104DA000BB6813F4806E4BD0242303FB09418A6B4C
:104DB00072B13B69B1F84AE0C3F3C943013323F050
:104DC00001030EFB03F39A4294BF921AD21ACA63EC
:104DD000FB6843F002034946FB6001F019FA242303
:104DE00003FB09494FF4806210210823B960206851
:104DF000BA60A26889F849308DE5242202FB094097
:104E0000426C032A53D8013242640222242303FB5A
:104E1000094393F8530083F8482003283FF4F0AE89
:104E2000019A5EF8023023F0804343F000434EF8CD
:104E30000230E5E6242303FB094383F84880DFE6DC
:104E4000BB6899077FF567AD242303FB0943F96825
:104E500093F8492021F00201012AF96046D0032A83
:104E60003FD0042A61D0052A3DD0062A4FD0082A17
:104E70004DD0242303FB0943C6E6019924225EF8A2
:104E8000013002FB094243F000534EF80130204646
:104E900082F8488049460122FBF7E6FFA2682068B5
:104EA00039E5242303FB094383F84820A8E643643B
:104EB0000422ABE7242303FB0943F9685A6C41F051
:104EC000020E01324FF0060CC7F80CE049465A6456
:104ED00083F849C001F09CF98023BB60A268206878
:104EE00019E54FF0020283F84820C2E793F8531007
:104EF00083F848200229BCD193F85720D207B8D5AF
:104F000093F8562082F0010283F85620B1E724235B
:104F100003FB09435A6C511C032A5964E1D900214F
:104F20000422596483F84820A3E74FF0020283F873
:104F3000482083F851E09CE738B590F85032012BB7
:104F400001D1022038BD0446012580F85052006886
:104F500000F086FE2946206800F092FF002084F8C9
:104F6000500238BD90F85032012B01D10220704719
:104F700010B50123044680F85032006801F090F922
:104F8000002084F8500210BD006800F05FBF00BF31
:104F900001EBC10100EB810191F84800704700BFAF
:104FA00001EBC10100EB8101C86B7047006800F0A4
:104FB00093BF00BF006800F085BF00BFF0B5036875
:104FC000DC0783B0074637D59E4A936803F00C038D
:104FD000042B00F0A480936803F00C03082B00F06E
:104FE0000781994B974C00221A70FEF757FA41F24D
:104FF0008835064605E0FEF751FA801BA84200F20C
:10500000D48023689903F6D48F4B3A791A707B6861
:10501000002B00F0F180FEF741FA8A4C064641F27F
:10502000883505E0FEF73AFA801BA84200F2BD8001
:1050300023689A03F6D53B689E0738D41A0715D51E
:105040007B69002B00F0B480804B7E4C01221A60FB
:10505000FEF724FA054605E0FEF720FA401B642817
:1050600000F2A380636F9B07F6D53B68580759D4BD
:10507000BB69CBB1734CA26802F00C02082A4ED077
:10508000022B734B4FF000021A6000F0D680FEF73F
:1050900005FA054605E0FEF701FA401B642800F218
:1050A000848023689B01F6D4002003B0F0BD654ADC
:1050B000916811F00C0F2BD0916801F00C010829B8
:1050C00023D0FB68002B00F0A780624B5D4C0122CF
:1050D0001A60FEF7E3F9054604E0FEF7DFF9401B2E
:1050E000642862D823689807F7D52168F82393FAD3
:1050F000A3F3B3FA83F33A69DBB221F0F80102FAC1
:1051000003F30B4323603B6898E752685502D8D4F9
:105110004C4A126894075BD5FA68012A58D00120DE
:1051200003B0F0BD474B4C4C1A6C42F080521A64ED
:105130001B6C03F080530193019B236843F480733D
:105140002360FEF7ABF9054604E0FEF7A7F9401B24
:1051500064282AD82368D905F7D5404B394C00225A
:105160001A70FEF79BF941F28835064604E0FEF717
:1051700095F9801BA84218D8236F9A07F7D4374BAC
:105180003A7A1A70BB68002B00F0AC80FEF786F903
:105190002C4C064641F28835236F9B073FF568AFDC
:1051A000FEF77CF9801BA842F6D9032003B0F0BDBE
:1051B000264A244C1360FEF771F9054604E0FEF719
:1051C0006DF9401B6428F0D8636F9E07F7D44CE755
:1051D0001C4CF822206892FAA2F2B2FA82F23969E3
:1051E000D2B220F0F80001FA02F20243226025E771
:1051F0005368580293D4F4E6FEF750F9114C064672
:1052000041F2883504E0FEF749F9801BA842CCD86A
:1052100023689B03F7D40EE70E4A0A4C1360FEF78F
:105220003DF9054604E0FEF739F9401B6428BCD877
:1052300023689907F7D43B6800E7FEF72FF9054686
:1052400013E000BF0038024002380240800E47429F
:105250006000474200004742007000407038024042
:10526000FEF71CF9401B64289FD823689901F7D4E6
:1052700047F6C07090FAA0F0B0FA80F04FF44031D9
:1052800091FAA1F1B1FA81F14FF0706696FAA6F6A3
:10529000B6FA86F607F11C0393E80850BA6AFD6A6D
:1052A000C0B252080EFA00F7C9B243EA0C03013A41
:1052B0008A40F0B23B431343124905FA00F213430C
:1052C000012263600A60FEF7E9F80F4D044605E02D
:1052D000FEF7E4F8001B64283FF667AF2B689A01DD
:1052E000F6D5E1E6FEF7DAF8074C064641F28835D6
:1052F000236F98077FF5BCAEFEF7D0F8801BA8425D
:10530000F6D952E760004742003802407C4A1368F1
:1053100003F00F038B422DE9F0410C46054609D2FC
:10532000CBB21370136803F00F03994258D00120D9
:10533000BDE8F08103689A0706D5724980688A68DB
:1053400022F0F00202438A60DF0727D56A68012A4B
:1053500079D0931E012B6B4B1B6840F28780990715
:10536000E5D5684EB36823F003031343B360FEF73B
:1053700095F86B68012B07467CD0022B00F08880E3
:10538000032B65D041F2883804E0FEF787F8C01B94
:10539000404565D8B36813F00C0FF6D1584BE2B214
:1053A0001A701B6803F00F039C42C0D12B685A0788
:1053B00006D55449E8688A6822F4E05202438A60BC
:1053C0001B0707D54F4A2969936823F4604343EAD2
:1053D000C10393600020FEF731F80020BDE8F081A2
:1053E00003689F0706D5474980688A6822F0F00263
:1053F00002438A60DE07DAD56A68012A56D0931E16
:10540000012B404B1B682ED9990790D53D4CA368C2
:1054100023F003031343A360FEF740F86B68012BEE
:10542000064648D0022B54D0032B60D041F2883777
:1054300004E0FEF733F8801BB84211D8A36813F0DC
:105440000C0FF6D1B2E72F4B1B689E0389D46EE791
:1054500041F28834B368FEF721F8C01BA042F9D9A5
:105460000320BDE8F0819801D0D460E798013FF5B2
:1054700078AF5CE741F2883804E0FEF70FF8C01B14
:105480004045EDD8B36803F00C03042BF5D185E754
:1054900041F2883804E0FEF701F8C01B4045DFD830
:1054A000B36803F00C03082BF5D177E7154B1B68A5
:1054B0009C03ABD43BE741F2883704E0FDF7EEFFF5
:1054C000801BB842CCD8A36803F00C03042BF5D1A1
:1054D0006CE741F2883704E0FDF7E0FF801BB8423B
:1054E000BED8A36803F00C03082BF5D15EE741F2A8
:1054F0008835A368FDF7D2FF801BA842F9D9AFE732
:10550000003C02400038024038B5254CA36803F047
:105510000C03042B2AD0082B26D1656863685B0234
:1055200005F03F0528D4606847F6C07292FAA2F3EE
:10553000B3FA83F31040DBB220FA03F31948B0FB4F
:10554000F5F000FB03F0164B4FF440325B6892FA23
:10555000A2F2B2FA82F2D2B203F44033D340013362
:105560005B00B0FBF3F038BD0E4838BDFBF7AEF979
:105570000D4B03FB00F038BDFBF7A8F9626847F656
:10558000C07494FAA4F1B1FA81F1074B2240C9B278
:10559000CA4003FB00F0B0FBF5F000FB02F0D2E7DD
:1055A000003802400024F40040420F0008B5FFF725
:1055B000ABFF094AF023926893FAA3F3B3FA83F39B
:1055C00002F0F002DBB222FA03F30449044ACB5C96
:1055D000D840106008BD00BF00380240786600085F
:1055E0002000002000283BD0F8B590F85130044648
:1055F00003F0FF02002B2ED0A7686368E6682569D8
:105600006269E069216A3B4333432B431343A76933
:105610002668A56A626A0343022084F85100306854
:105620000B43390C2B4307F4007701F004013B4393
:105630000A4320F04000E16A3060336072603161FB
:10564000F369002223F400630121F36110466265CF
:1056500084F85110F8BD80F85020FBF741F9CBE7F2
:105660000120704770B590F85140E4B2012C0AD087
:105670004568B5F5827F01D0022070BD8568002D98
:10568000FAD1222CF8D1002955D0002A53D0002B72
:1056900051D090F85040012CEED090F85140016369
:1056A000222C1CBF322480F85140846A838600215A
:1056B0000125B4F5005F41658164C16480F85050F4
:1056C000C38682638387C387016836D090F85140D0
:1056D000466C222C07BF1D4D1D4C1E4D1E4C3564C3
:1056E000F4631E4DB56404460C313046FDF7A6FF49
:1056F0002268E38E5668206C216B46F001065660E6
:1057000094F85160322E18BF002500260C328564B3
:10571000C663FDF793FF236884F850601A68520649
:1057200003D41A6842F040021A605A6842F002023A
:105730005A60002070BD012070BD0C6824F4005434
:105740000C600C6844F400540C60BFE76957000813
:10575000A557000879570008355A000885570008F2
:10576000704700BF704700BF08B5806BFFF7FAFFB6
:1057700008BD00BF704700BF08B5806BFFF7FAFF98
:1057800008BD00BF806B08B5012380F85130436D20
:10579000002243F010034365C286C287FAF768FF10
:1057A00008BD00BF30B50368846B1B68D90583B0A2
:1057B0002AD4A368C3B96368B3F5827F54D0226842
:1057C0005368A16A23F001030020B1F5005F536024
:1057D000E0871ED0012384F85130636D2046A3B1C9
:1057E000FAF746FF03B030BD6268B2F5827FE6D1BA
:1057F000B3F5004F226802D0B3F5806FE0D1136893
:1058000023F040031360DBE72046FFF7A9FF03B056
:1058100030BDFDF743FE054604E0FDF73FFE401BAB
:1058200002286CD823689A68D007F6D5DB689BB24B
:10583000ADF80430BDF80430FDF730FE054604E055
:10584000FDF72CFE401B022839D823689A68D1073F
:10585000F6D49A68D206BDD5626D6FF0100142F0A1
:10586000020262659960B5E7A36AB3F5005F00F0D4
:10587000A280FDF713FE054604E0FDF70FFE401B76
:10588000022878D823689A689107F6D55A6822F0DA
:1058900002025A60FDF702FE054604E0FDF7FEFD38
:1058A000401B02284BD823689A681206F6D45A681F
:1058B000002122F001025A60E186E1878AE723682D
:1058C000A16A5A6822F0E0025A601A68B1F5005FD6
:1058D00022F040021A6007D11A6822F400521A60BE
:1058E0001A6842F400521A60012284F85120626D55
:1058F000002142F02002626584F85010A9E7236875
:10590000A16A5A6822F0E0025A601A68B1F5005F95
:1059100022F040021A6007D11A6822F400521A607D
:105920001A6842F400521A60012284F85120626D14
:10593000002142F02002626584F8501076E7236867
:10594000A16A5A6822F0E0025A601A68B1F5005F55
:1059500022F040021A6007D11A6822F400521A603D
:105960001A6842F400521A600121002284F8511092
:1059700084F850209BE72368A16A5A6822F0E0026D
:105980005A601A68B1F5005F22F040021A6007D130
:105990001A6822F400521A601A6842F400521A601F
:1059A000012284F85120626D002142F020026265DC
:1059B00084F850106AE7FDF771FD054604E0FDF735
:1059C0006DFD401B022815D823689A68D207F6D5CA
:1059D000DA6892B2ADF80620BDF806209A68D006C3
:1059E0007FF547AF626D6FF0100142F00202626511
:1059F00099603EE72368A16A5A6822F0E0025A6083
:105A00001A68B1F5005F22F040021A6007D11A68E7
:105A100022F400521A601A6842F400521A600122FD
:105A200084F85120626D002142F02002626584F802
:105A30005010CDE730B50368846B1B68D90583B07F
:105A400032D4A36AB3F5005F34D0FDF727FD0546D5
:105A500004E0FDF723FD401B022849D823689A681B
:105A60009107F6D55A6822F002025A60FDF716FD3A
:105A7000054604E0FDF712FD401B022858D82368B4
:105A80009A681206F6D45A68012122F001025A607F
:105A900084F85110626D0023E386E38720462AB91B
:105AA000FAF7DAFD03B030BD2046F9E7FAF7E0FD7A
:105AB00003B030BDFDF7F2FC054604E0FDF7EEFC57
:105AC000401B022850D823689A68D207F6D5DA68B6
:105AD00092B2ADF80620BDF806209A68D006B4D57B
