:020000040800F2
:1000000000000120056300085163000851630008E7
:100010005163000839030008516300080000000024
:100020000000000000000000000000005163000814
:10003000516300080000000051630008D502000869
:1000400051630008516300085163000851630008C0
:1000500051630008516300085163000851630008B0
:100060005163000809030008516300085163000848
:100070005163000851630008516300085163000890
:10008000516300085163000851630008000000003C
:1000900000000000000000000000000051630008A4
:1000A0005163000851630008516300085163000860
:1000B0005163000851630008516300085163000850
:1000C0005163000851630008516300085163000840
:1000D00051630008516300085163000800000000EC
:1000E00051630008516300085163000800000000DC
:1000F0000000000000000000000000005163000844
:1001000000000000516300085163000851630008BB
:1001100000000000000000000000000000000000DF
:100120005163000851630008F1020008FD02000855
:100130005163000800000000000000000000000003
:10014000000000000000000000000000E5020008C0
:1001500051630008516300085163000851630008AF
:100160005163000851630008000000000000000017
:10017000000000000000000000000000000000007F
:1001800000000000516300080000000000000000B3
:1001900051630008002202214FF0FF3002F06EBDD3
:1001A000034B1B6913F0070F0CBF0820102070478A
:1001B00000080240404B02689A4200D0704703F5A5
:1001C00084332DE9F0475A6C3C4E42F480525A6415
:1001D0001A6B86B042F480021A6304460223012798
:1001E0000522304601A9E02505920195029303936B
:1001F000049703F0A5FC10230025B36101A9304644
:1002000001930297039503F09BFC2D4B029301A9E8
:10021000304608220397019203F092FC2A460A21F5
:10022000092002F02BFD092002F05EFD254B23641E
:1002300018462549DD6040224FF0C06A4FF48069BE
:100240004FF400684FF400574FF480369C63DD6133
:100250005D6219609A60C3F804A0C3F81090C3F8F7
:1002600014809F611E6202F067FD2A460A213B202E
:1002700002F004FD3B2002F037FD144B6364184686
:10028000134A1A60C3F804A09C639D60DD60C3F844
:100290001090C3F814809F61DD611E625D6202F000
:1002A0004BFD2A460A213A2002F0E8FC3A2002F0EF
:1002B0001BFD06B0BDE8F0870030014000000240A1
:1002C00000002110C4010020586402407401002085
:1002D0004064024008B502F0A3FCBDE8084000F00D
:1002E00051B800BF014803F049BF00BFDC0800203F
:1002F000014802F097BD00BF74010020014802F0E0
:1003000091BD00BFC4010020024B08225A6100F0D9
:1003100001BE00BF003C0140054B1A7802B1FEE768
:1003200004494FF40030012248621A70704700BF40
:100330004801002000ED00E0034B1A7802B9FEE707
:1003400000221A70704700BF480100200349044B87
:100350004FF00050012288611A7070470008024077
:1003600014020020044B188028B9044A044B107072
:100370004FF400529A6170474C0100204E0100205A
:100380000008024010B5164C2378B3B9154B1A88F3
:1003900082B115490B8801339BB29A420BD8134B9B
:1003A000187800220A80A0B9114A01204FF00051AC
:1003B0001870916110BD0B8010BD02F039FCB0F5D2
:1003C000FA7FE3D30A4A4FF400510023916123706E
:1003D000DCE707491A704FF400538B6110BD00BF72
:1003E000140200204C0100204A0100204E01002090
:1003F0000008024080B5684C92B0FFF78DFF40F2D4
:10040000E73363602369002B00DBFEE7FFF784FF1F
:10041000624B6360FFF780FF614B63602369002BD1
:1004200000DBFEE75F4B604C1B68226BC3F30B03E2
:1004300040F2234142F004028B42226313D006AD06
:100440005A4C01220023294620464FF4405507927A
:100450000893069503F074FB4FF000524FF0805361
:10046000A261A361FEE7514E06AD00234FF00108E3
:10047000304629460F27079309930A930697CDF82C
:10048000208003F05DFB336903F007034345D7D8B1
:1004900033691B07D4D502F0A9FB236C444A43F00F
:1004A00080532364136823F4404343F400431360F0
:1004B0004FF002094FF480030D93CDF81880CDF86A
:1004C0001C80CDF83090FFF76BFE40084FF0040A17
:1004D000A82207230E9028460F92CDF840A0119332
:1004E00004F050FA00B1FEE74FF4A0524FF48053ED
:1004F0000390494601A80197CDF80890049205930E
:1005000004F094FB074600B1FEE7504602F008FCF9
:10051000236B284843F001032363236B43F002035A
:100520002363236B43F004032363236B43F008032B
:100530002363294641F6FF7306930797CDF8208081
:1005400009970A9703F0FCFA4FF6E77329461A4811
:10055000069303F0F5FA4FF6FF73294630460693EB
:1005600003F0EEFA2946154803F0EAFA4FF4005476
:1005700030462946CDF81C800897069403F0E0FA2F
:10058000B461FFF7E3FE00F039FF00F081FEC82000
:1005900002F054FB30BFFDE7003C024023016745F9
:1005A000AB89EFCD002004E0003802400008024093
:1005B000007000400000024000040240000C0240B5
:1005C00010B5044600F0A8FE012800D010BD2CB1E3
:1005D000A388052B0AD0204600F0ECF9074B002237
:1005E0001B6811461046BDE810401847034BE268EF
:1005F000A1681B682046BDE8104018472C02002067
:1006000070B5044600F088FE012800D070BDACB182
:10061000A388022B204601D1257A3DB100F0CAF90A
:10062000094B01201B68BDE87040184700F0C2F973
:10063000054B28461B68BDE870401847024BBDE8D3
:1006400070401B68184700BF3402002070B50023BB
:100650000125C37185808571044600F0E3FC20B953
:10066000064800F0FBF918B970BD204600F0A2F969
:10067000034B28461B68BDE8704018470106000878
:100680003402002070B5022201250F4BC271857122
:10069000D3E900230D49072609688680C0E90223B3
:1006A0000161044600F0BEFC20B9094800F0D6F90B
:1006B00018B970BD204600F07DF9064B28461B682E
:1006C000BDE87040184700BF200200203002002023
:1006D00001060008340200202DE9F0411F4C0025DE
:1006E0000646257000F018FE012801D0BDE8F08113
:1006F0001B4F3A686AB33EB396F90630002B23DAF3
:10070000B388012B20D9DFF86480591E4900D8F83E
:10071000003089B2994217D85B1AC8F800303046C9
:100720009047D8F80030002BE0D000F0F5FD01280C
:100730000346DBD122783D60002AD7D123700948D7
:10074000BDE8F04100F08AB900210846BDE8F0415B
:100750001047054B1E60BDE8F08100BF2802002055
:1007600038020020D9060008180200203C020020B0
:1007700010B5044600F0D0FD012801D0012010BDC5
:10078000034B04481C60BDE8104000F0DFB800BF18
:10079000340200204D06000838B5054600F0BCFDC7
:1007A000012801D0012038BD0B4B04461D6000F02C
:1007B000E5F805460028F5D084808471C47100F006
:1007C00031FC18B1284600F0F5F8EBE70348BDE826
:1007D000384000F043B900BF2C020020C1050008DA
:1007E0002DE9F041DDF81880079F064614461D46A6
:1007F00000F092FD012802D00120BDE8F0810A4BF3
:100800000A4A1F600A4BC2F800800A4ADFF830E04B
:100810001E60002308491370CEE9004507480B60AD
:10082000BDE8F04100F092B83C0200203002002008
:10083000340200202802002018020020850600084B
:100840002002002070B5054600F066FD012801D0A9
:10085000012070BD0A4B0B4A1C78156074B90A4E12
:100860001870306828B125B1FFF736FF3460204694
:1008700070BD0648BDE8704000F0F0B8002070BDC3
:10088000280200203802002018020020D9060008A3
:100890000A4A117808B5034621B9012111701046A2
:1008A000984708E0064802781AB901220270984772
:1008B00001E0044A1360002008BD00BF540400207A
:1008C0004802002054010020034A136813B100219C
:1008D000116018470370704754010020F8B5154B9C
:1008E000154A1A601549164C4FF482754FF4006092
:1008F0004FF400725D60D8609A61184600220827A4
:100900004FF400560725DF619E62DD6283F85120B7
:100910009A601A615A611A625A6222700A7004F06F
:10092000FDFA084B1B691B0702D4074B01221A7002
:10093000F8BD00BF600600200030014048020020E2
:1009400054040020000002405C01002008B5094B5F
:100950001B78082B08D8084B1B683BB16420FFF7B5
:1009600001FD00F0C7FCFEE7012008BDBDE808401E
:10097000FFF78EBF5D0100205401002008B50A4B2F
:100980001B78082B08D80948037813B10848037866
:1009900023B90123037008BD002008BD6420FFF7C0
:1009A000E1FC00F0A7FCFEE75D01002054040020FC
:1009B0004802002008B50F4B1B78082B14D80E4BAB
:1009C000984208D00D4B984205D06420FFF7CAFC2E
:1009D00000F090FCFEE70378012B06D06420FFF7BF
:1009E000C1FC00F087FCFEE708BDBDE80840FFF74A
:1009F0006BBF00BF5D0100205404002048020020AE
:100A000012490B78082B10D8042B10B507D823B93E
:100A10000F4A107805240C7048B9002010BD6420DE
:100A2000FFF7A0FC00F066FCFEE7012070470949D3
:100A300013700C682CB16420FFF794FC00F05AFC92
:100A4000FEE70548FFF724FF204610BD5D010020AA
:100A50005C01002054010020A50E000808B50A4BD7
:100A60001B78082B08D8094B1A683AB16420FFF7A5
:100A700079FC00F03FFCFEE7012008BD1860BDE8EE
:100A80000840FFF7BDBF00BF5D01002058010020F6
:100A900038B50D4A0D4B0E4C0E484FF4801104250D
:100AA000257091611A6893880632022B38BF0223A1
:100AB000114604F0C3FC00B938BD6420FFF752FCB6
:100AC00000F018FCFEE700BF0000024050040020C8
:100AD0005D0100206006002038B50D4A0D4B0E4C1C
:100AE0000E484FF480110825257091611A6893888B
:100AF0000632022B38BF0223114604F09FFC00B9D6
:100B000038BD6420FFF72EFC00F0F4FBFEE700BFC9
:100B100000000240500400205D010020600600201B
:100B2000F0B5684C684F694D694A6A4802234FF432
:100B3000801183B02370B96129680093043104F0F7
:100B40002DFA28B16420FFF70DFC00F0D3FBFEE77F
:100B50001023BB612378082B2AD8022B064600F00D
:100B60009E80042B4DD0062B38D0082B30D15A4F05
:100B700020703A6832B32868C388B3F5827F19D0F1
:100B80005649837909784B405B0605D1544BC179AE
:100B90001B78994200F08F806420FFF7E3FB00F0A0
:100BA000A9FBFEE70B70FFF7BBFF2378082B43D9A7
:100BB00003B0F0BDFFF7FEFE3E6003B0BDE8F040BD
:100BC00000F0CCBB6420FFF7CDFB00F093FBFEE709
:100BD0006420FFF7C7FB00F08DFBFEE72B689B88C6
:100BE000013B9BB2B3F5807F53D83E4B1A78072167
:100BF0002170002ADCD0187003B0BDE8F040FFF788
:100C00006BBF394B394A1B68002B36D0136873B35E
:100C10002E683449DFF8C4C02B60314F9D790878C5
:100C200093F807E08CF800500023012587F800E0D6
:100C3000257013600028B5D12D4B9E4208D02D4B56
:100C40009E4205D06420FFF78DFB00F053FBFEE7CA
:100C50003378012B05D06420FFF784FB00F04AFBBA
:100C6000FEE7304603B0BDE8F040FFF72DBE64203C
:100C7000FFF778FB00F03EFBFEE713682E68002BC1
:100C8000C7D1154A23701368002BD5D0FFF7B8FEE3
:100C90008BE76420FFF766FB00F02CFBFEE7114BAF
:100CA0001A7803212170002A82D0187003B0BDE8A1
:100CB000F040FFF7EDBE00233B6003B0BDE8F0401D
:100CC000104700BF5D0100200000024050040020DA
:100CD0004002002060060020580100205C06002031
:100CE000440200205C01002054010020500100203B
:100CF00054040020480200202DE9F0415E4B5F4C77
:100D000010229A612378082B2DD8022B56D0042B61
:100D10002BD0062B64D0082B5CD1594D2A680026B5
:100D20002670002A70D0574B1868C388B3F5827FAD
:100D300000F09B805449837909784B4013F07F037E
:100D400005D15249C47909788C4200F08A80642028
:100D5000FFF708FB00F0CEFAFEE70370FFF7E0FEB6
:100D60002378082B1ED9BDE8F081494B49491B68FF
:100D7000002B69D00B68002B60D0424A15684648AA
:100D8000DFF804C11360414F9A79067893F807E0C1
:100D90008CF800200023012287F800E022700B600D
:100DA000002EDAD13D4B9D423AD03D4B9D4237D08B
:100DB0006420FFF7D7FA00F09DFAFEE7364B1A7869
:100DC00003212170002ACED000221A70BDE8F04124
:100DD000FFF75EBE6420FFF7C5FA00F08BFAFEE76E
:100DE000284B1B689B88013B9BB2B3F5807F11D8D1
:100DF000294B1A7807212170002AB4D000221A70DA
:100E0000BDE8F041FFF768BE6420FFF7ABFA00F0E1
:100E100071FAFEE76420FFF7A5FA00F06BFAFEE72F
:100E20002B78012B05D06420FFF79CFA00F062FAC2
:100E3000FEE72846BDE8F041FFF746BD6420FFF716
:100E400091FA00F057FAFEE70E4A0B681568002B7E
:100E500095D10B4A23701368002BA3D0FFF7D0FD68
:100E60007EE72B60BDE8F0411047FFF7A3FD2E6041
:100E7000BDE8F04100F072BA000002405D010020C0
:100E800058010020500400205C060020440200208D
:100E900054010020500100205C0100205404002077
:100EA0004802002017490A78082A0AD830B5052ACE
:100EB00083B0034606D06420FFF754FA00F01AFA14
:100EC000FEE770470246002022F8040F0E480F4C40
:100ED0000360062502204FF480130D70A3611146B4
:100EE000034600900A4804F059F828B16420FFF73F
:100EF00039FA00F0FFF9FEE7054803B0BDE83040DD
:100F0000FFF7FABE5D0100205004002000000240FF
:100F1000600600203B490B78082B09D870B582B0D9
:100F2000072B1BD8DFE803F020251A3A1A531A05BD
:100F30007047354A354B364808254FF480140D70FC
:100F400094611A6893880632022B38BF0223114637
:100F500004F074FA00284FD102B070BD6420FFF78E
:100F600001FA00F0C7F9FEE72A4B01221A7002B01D
:100F700070BD264C244D284A254802230B70216859
:100F80004FF48016AE610431009304F007F868B3A3
:100F90006420FFF7E7F900F0ADF9FEE71A4A1B4BB2
:100FA0001B4804254FF480140D7094611A689388CF
:100FB0000632022B38BF0223114604F03FFA002804
:100FC000CAD06420FFF7CEF900F094F9FEE7134B86
:100FD0001B682BB16420FFF7C5F900F08BF9FEE721
:100FE0000F4802B0BDE87040FFF752BC084802B09D
:100FF000BDE87040FFF780BE6420FFF7B3F900F052
:1010000079F9FEE75D010020000002405004002055
:10101000600600205C0100204002002054010020F6
:10102000A50E00082549F8B50C78082C15D8244AD7
:101030009042034608D0234A904205D06420FFF72F
:1010400091F900F057F9FEE71878012807D06420DD
:10105000FFF788F900F04EF9FEE70120F8BD9A8805
:10106000013A92B2B2F5807FF1D8174D2A682AB1C1
:101070006420FFF777F900F03DF9FEE724B1042C76
:1010800010D82B601046F8BD104A114F0870114E51
:101090001149157898793B60DB7930700B703DB958
:1010A0002046F8BD6420FFF75DF900F023F9FEE764
:1010B0001470FFF735FD2046F8BD00BF5D0100202C
:1010C0005404002048020020500100205C01002050
:1010D000500400205C0600204402002008B5054BA7
:1010E0001B78082B00D908BD6420FFF73BF900F0FE
:1010F00001F9FEE75D01002010B501230024074936
:1011000084718380C3710B70FFF78CFF00B110BD39
:101110000348BDE81040FFF7A1BC00BF5F010020FD
:10112000C911000870B5254C2378032B11D853BB87
:1011300048B3828840F201139A420BD06420FFF733
:1011400011F91F4B1B78013B0422022B227029D975
:10115000FEE770BDC21D00F20721FF2301E08A42B5
:1011600028D012F8016F03F127059E42EBB2F6D0AA
:101170006420FFF7F7F8124B1B78013B0422022B87
:10118000227013D9FEE76420FFF7ECF80C4B1B78B4
:10119000013B0422022B227000D9FEE7094800F02F
:1011A000D1FAFAE7074800F0CDFAD1E7054800F098
:1011B000C9FAE7E7BDE87040FFF79EBF5F01002076
:1011C0005E010020B8060020F8B52D4C2278032AD5
:1011D00010D8012A0FD170B18688022E16D0642053
:1011E000FFF7C0F8274B1B78013B0422022B22702B
:1011F00042D9FEE7F8BD6420FFF7B4F8214B1B7815
:10120000013B0422022B227032D9FEE7077A012F1C
:101210001DD11C4DFFF7CEFB2B78012B0CD9642080
:10122000FFF7A0F82B78013B0422022B227002D892
:10123000154800F087FAFEE71449134826702F700E
:1012400000F06CFA1048BDE8F84000F075BAFFF7FE
:10125000B1FB6420FFF786F80A4B1B78013B0422A0
:10126000022B227000D9FEE7074800F06BFAFAE77C
:10127000054800F067FAC8E7034800F063FAB8E7EA
:101280005F0100205E010020B8060020340000202D
:1012900010B5FFF723FBFFF771FB08B340F2011114
:1012A0000022114B81808271C27100F1080100F5AA
:1012B000027441F8043B83F09C3203F07F3302F068
:1012C000803203F11C338C4283EA0203F1D1FFF731
:1012D000A9FE00B110BD0548BDE81040FFF7BEBB38
:1012E000034B04221A7010BDFF264D74251100080F
:1012F0005F010020054B064A1B78013B0421022BAD
:10130000117000D97047034800F01CBA5E0100203C
:101310005F010020B806002010B50D4C2378042B87
:1013200010D0023B012B0AD96420FFF71BF8094BB0
:101330001B78013B0422022B227005D9FEE7054BE6
:10134000187810BD184610BD034800F0FBF9F5E70A
:101350005F0100205E010020B806002010B50E4C91
:101360002378013B022B0AD96420FEF7FBFF237888
:101370000A4A013B0421022B117008D9FEE70848F4
:1013800000F0E0F90748BDE81040FFF7DFBA044875
:1013900000F0D8F9F2E700BF5E0100205F010020F5
:1013A000B8060020F910000810B50C4C2378032B68
:1013B0000ED8022B0AD06420FEF7D4FF084B1B780E
:1013C000013B0422022B227003D9FEE70323237082
:1013D00010BD044800F0B6F9F7E700BF5F01002038
:1013E0005E010020B8060020034B1A78032A04BFD0
:1013F00002221A70704700BF5F01002000220249DC
:10140000024800F077B900BF00000020B8060020B5
:101410000368B3F1A04F00D07047114B11485A6BCD
:1014200030B542F080025A635A6C87B042F4804271
:101430005A64002402234FF4C0520A2501A90293E2
:10144000019203940494059502F07AFB2246294602
:10145000432001F013FC432001F046FC07B030BDEF
:10146000003802400000024000F56071D0F8B0037F
:1014700000F086B9C1EBC10300EB8303D0F8B003E1
:10148000D3F8E42100F0ACB9C1EBC10300EB830356
:10149000D0F8B0031A6C00F0D5B900BFD0F8B00393
:1014A00000F058BA10B5C16804460031D0F8B00356
:1014B00018BF012100F030FAD4F8B003BDE81040A5
:1014C00000F00ABA10B50446D0F8B00300F028FACC
:1014D0002268D2F8003E43F00103C2F8003E10BD7E
:1014E0000268D0F8B003D2F8003E23F00103C2F83E
:1014F000003E00F023BA00BFD0F8B00300F03ABAC3
:10150000D0F8B00300F034BAD0F8B00300F034BA29
:10151000D0F8B00300F032BAD0F8B00300F03ABA15
:1015200038B5057825BB134C022307224FF0A041A4
:10153000C4F8B003C0F82042204684E80600E36007
:10154000A36125616561E5612562A562E5622563A8
:1015500002F0D6FB8021204603F010FA29464022F3
:10156000204603F0E5F920468022012103F0E0F94E
:10157000002038BDDC08002008B5D0F8200202F0B9
:10158000CFFD002008BD00BF08B5D0F8200202F052
:10159000DDFD002008BD00BF10B51C46D0F82002BC
:1015A0001346224603F078F8002010BD08B5D0F8A5
:1015B000200203F0B1F8002008BD00BF08B5D0F844
:1015C000200203F097F9002008BD00BF08B5D0F84D
:1015D000200203F039F9002008BD00BF08B5D0F89B
:1015E000200203F05FF9002008BD00BF0B06D0F811
:1015F000202206D4C1EBC10102EB810191F8DA018E
:10160000704701F07F03C3EBC30302EB830393F83E
:101610003600704708B5D0F8200203F02BF8002000
:1016200008BD00BF08B5D0F8200203F0DBF80020A9
:1016300008BD00BF08B5D0F8200203F093F80020E1
:1016400008BD00BF08B5D0F8200203F0C1F808BDFE
:1016500012230B80004870471C00002004230B80DD
:10166000004870473000002010B5044C04480A467A
:10167000214600F08DFB204610BD00BF900C0020DD
:10168000CC65000810B5044C04480A46214600F019
:101690007FFB204610BD00BF900C0020B065000805
:1016A00010B5044C04480A46214600F071FB204660
:1016B00010BD00BF900C0020D865000810B5044C88
:1016C00004480A46214600F063FB204610BD00BFD7
:1016D000900C00207465000810B5044C04480A46BC
:1016E000214600F055FB204610BD00BF900C0020A5
:1016F0009465000880B108B50023C0F81432C0F822
:10170000183209B1C0F810120123027080F8FC31C0
:10171000FFF706FF002008BD0220704741B18A8F05
:10172000044BC0F81412110AD9729A720020704743
:10173000022070471C00002008B5FFF71DFF0020A5
:1017400008BD00BF10B5D0F8143201795B680446BB
:1017500098472046FFF718FF002010BD08B5D0F8C5
:10176000143213B11B68984708B1022008BD08BDA8
:1017700008B5D0F814325B689847002008BD00BF58
:1017800038B5044600F50275284600F0E1FA94F8F1
:101790000812B4F80E32C4F8F831012201F01F0328
:1017A0009342C4F8F42115D00ED3022B06D001F0D9
:1017B00080012046FFF70AFF002038BD2946204659
:1017C00000F05EFA002038BD2946204600F0EAF815
:1017D000002038BD2946204600F034FA002038BDEC
:1017E00010B5044631B91346D0F8F421032A0CD0C1
:1017F000002010BDD0F814329B69002BF8D090F86F
:10180000FC21032AF4D19847F2E7D0F80C21D0F854
:1018100010118A420CD8D0F814321B691BB190F811
:10182000FC21032A0CD0204600F0F6FA002010BD5F
:10183000521AC0F80C21194692B200F0E5FAD7E727
:101840009847F0E738B5044651B91346D0F8F4216B
:10185000022A15D094F80032012B0CD0002038BD9C
:10186000D0F814325B69002BF8D090F8FC21032AE1
:10187000F4D19847F2E7002384F80032002038BD05
:10188000C569026A95421DD88369B3FBF2F502FB74
:1018900015355DB99A4209D8D0F8F821934205D29E
:1018A0002A4600F0A9FAC4F8F851D3E7D4F8143264
:1018B000DB681BB194F8FC21032A0AD0204600F013
:1018C000B7FAC7E7AA1AC261194692B200F094FAB1
:1018D000C0E720469847F1E738B500220446402388
:1018E0001D461146FFF758FE2B460022C4F8105142
:1018F00020468021FFF750FED4F8183225620122DD
:1019000084F8FC212BB1D4F8143221795B6820468D
:101910009847002038BD00BF01740020704700BF09
:1019200008B590F8FC3180F8FD310422012B80F8D5
:10193000FC2101D9FFF738FD002008BD08B590F85B
:10194000FD3180F8FC31012B01D9FFF74DFD00205E
:1019500008BD00BF90F8FC21032A01D00020704789
:1019600008B5D0F81432DB6903B19847002008BDF0
:1019700000207047002070470020704708B5012103
:10198000D0F8142280F8FC115268017990470020A9
:1019900008BD00BF08B5D0F814329B6A03B1984760
:1019A000002008BD30B54B7883B00D460446092BA6
:1019B0000BD8DFE803F035490A590A05660A7D1598
:1019C0008B8813B9CB88002B7FD080212046FFF76E
:1019D000FDFD20460021FFF7F9FD002003B030BDDA
:1019E0008978974D01292970EFD890F8FC31022BA6
:1019F00000F08980032BE8D1002900F016814168AE
:101A0000012909D0C9B2FFF7B3FE297861602046E9
:101A1000FFF7A4FE0228D8D0204600F0FDF9DCE74D
:101A200090F8FC310122023B93424FF00301CCD8E5
:101A3000D0F80432C26003B1C160022204F10C018B
:101A4000204600F0CBF9C8E790F8FC31023B012BAF
:101A5000BBD84B88012BC0D1D0F8143200229B6830
:101A6000C0F804229847D7E74B88012BB5D1D0F8AE
:101A70001422C0F8043293689847204600F0CCF94D
:101A8000ABE74A88130A013B062B9ED801A151F807
:101A900023F000BF771B0008991B0008871B000874
:101AA000CB190008CB190008611B0008211B000896
:101AB000CA88012A89D190F8FC31022B1CD0032B53
:101AC00083D1011D00F08AF987E790F8FC318D7809
:101AD000032B05F07F053FF478AF80F8FE512946CF
:101AE000FFF798FD204600F097F9002D00F0908058
:101AF000022384F8FC3170E70146002341F8083FD7
:101B000000F06CF969E7002986D0012103234160C8
:101B100080F8FC31FFF722FE02287FF47DAF54E706
:101B2000037C002B7FF451AFD0F814320DF1060086
:101B30005B6B984707234370BDF80630002B3FF4DA
:101B40004CAFEA88002A3FF448AF934228BF1346BF
:101B500001461A462046ADF8063000F03FF93CE752
:101B6000037C002B7FF431AFD0F814320DF1060066
:101B70009B6B9847E0E7D0F81032007C1B680DF1B2
:101B800006019847D8E7D2B2052A3FF61EAFDFE834
:101B900002F0271F170F372F037C002B3CD1D0F802
:101BA00014320DF10600DB6A984702234370C3E745
:101BB000D0F81032007C1B690DF106019847BBE795
:101BC000D0F81032007CDB680DF106019847B3E7CE
:101BD000D0F81032007C9B680DF106019847ABE706
:101BE000D0F81032007C5B680DF106019847A3E73E
:101BF000D0F81032007C9B690DF1060198479BE7F5
:101C0000D0F81032007C5B690DF10601984793E72C
:101C1000012384F8FC31E0E6D0F814320DF106001F
:101C20001B6B98470223437086E70223416080F8CC
:101C3000FC31FFF79DFD204600F0EEF8CDE600BF39
:101C40006001002038B590F8FC31032B044603D125
:101C50000B79012B0D4608D98021FFF7B7FC2046F0
:101C60000021FFF7B3FC002038BDD0F814329B6888
:101C70009847EB88002BF6D1204600F0CDF8F2E72C
:101C800070B50B788A8803F06003202B054659D085
:101C90004B78012B0C46D6B236D019D3032B15D175
:101CA00090F8FC31022B33D0032B42D14B8823B95F
:101CB000730602D03146FFF789FCD5F8143221466D
:101CC0009B6828469847284600F0A6F8002070BD7B
:101CD00090F8FC31022B1BD0032B2AD106F07F0495
:101CE00000EB0414130631464CBF143404F582741F
:101CF000FFF77CFC003018BF0120206021462846F9
:101D0000022200F06BF8E1E790F8FC31022B05D1DC
:101D10007206DBD03146FFF759FCD7E7032B08D119
:101D20004B88002BD2D17106CDD03146FFF756FC3F
:101D3000C3E78021FFF74AFC28460021FFF746FC55
:101D4000002070BDD0F814329B689847BEE700BFF2
:101D50000B7803704B784370CA788B7803EB0223BF
:101D600043804A790B7903EB02238380CA798B790C
:101D700003EB0223C380704710B580210446FFF7B0
:101D800025FC20460021BDE81040FFF71FBC00BF26
:101D900000B3037830B4F3B10446002314F8015FB4
:101DA0000133DBB2002DF9D15B000233DCB2032535
:101DB00013800C704D7004785CB1022300255A1C0E
:101DC000D2B2CC548D5410F8014F0233DBB2002C48
:101DD000F5D130BC704702242346E8E738B51346F6
:101DE00002250A468361C361C0F8F4510021FFF760
:101DF00019FC002038BD00BF08B513460A46002173
:101E0000FFF710FC002008BD08B513460A46002164
:101E1000FFF710FC002008BD08B504220023C0F81D
:101E2000F42119461A46FFF7FDFB002008BD00BF4C
:101E300008B505220023C0F8F42119461A46FFF719
:101E4000F9FB002008BD00BF202303800048704735
:101E50009400002020230380004870477400002075
:101E60002023038000487047C00000200A2303801D
:101E700000487047B4000020037C10B50446D3B975
:101E80004FF4007302220121FFF786FB4FF4007329
:101E9000022281212046FFF77FFB742004F07CFAA8
:101EA000C4F81802C8B1204600F094F9D4F81832EA
:101EB0000020186110BD402302220121FFF76CFBB6
:101EC0004023022281212046FFF766FB742004F0A4
:101ED00063FAC4F818020028E5D1012010BD00BF44
:101EE00010B501210446FFF761FB81212046FFF771
:101EF0005DFB204600F094F9D4F8180220B104F0FC
:101F000053FA0023C4F81832002010BD2DE9F04127
:101F10000B78D0F8187213F060040D46064615D001
:101F2000202C10D14A78FE2A28D0FF2A1CD14A88BA
:101F300012B9CC88002C58D030462946FFF71CFF38
:101F40000220BDE8F0810020BDE8F08191F8018019
:101F5000B8F10A0F21D0B8F10B0F0AD0B8F1010F78
:101F600022D02046BDE8F081FFF706FF0220BDE841
:101F7000F0818B787B602046BDE8F0814C88002C96
:101F8000DAD1CA88012AD7D11906D5D53C6039469D
:101F9000FFF724FF2046BDE8F081391D0122FFF73D
:101FA0001DFF2046BDE8F0810979FFF707FB29797D
:101FB0003046FFF7FBFA95F90430002B337C1BDB2E
:101FC00041465BB1402302223046FFF7E5FA304636
:101FD000297900F0C9F90020BDE8F0814FF40073C1
:101FE00002223046FFF7D8FAF1E71B06A4D400F02E
:101FF0000DF92046BDE8F0813BB94FF40073022291
:1020000081213046FFF7C8FAE1E74023022281210F
:102010003046FFF7C1FADAE708B500F007F900200B
:1020200008BD00BF08B500F035F9002008BD00BFAD
:10203000D0F8183263B11B6953B110B50446184685
:10204000FEF7B8FCD4F8183200221A61002010BD47
:1020500000207047002800DB70470E4B0E4A70B519
:102060001D68D5F81842012600236263237223619C
:1020700004F1340284F8406028460D238121FFF7E3
:10208000D1FA04F11402284631461F23BDE87040FE
:10209000FFF7D0BA900E002055534253002800DBC2
:1020A00070470E4B0E4A70B51D68D5F818420126D0
:1020B000002362632372236104F1340284F84060D8
:1020C00028460D238121FFF7ADFA04F114022846BA
:1020D00031461F23BDE87040FFF7ACBA900E0020D8
:1020E00055534253002870B5374B21DB1A68137AD9
:1020F000013B022B36D953893449002B4ED10D6850
:10210000334AD5F81842284684F8403023722361B8
:1021100062630D2304F134028121FFF783FA04F195
:10212000140228461F230121BDE87040FFF782BA40
:102130001B681B7A052B254B15D01D68D5F8184256
:1021400094F820303BB9E3692BB1637A1BB90121C4
:102150002846FFF73BFA81212846FFF737FA637AD2
:10216000022BDCD070BD1D68194AD5F81842012633
:10217000002362632372236104F1340284F8406017
:1021800028460D238121FFF74DFA04F11402284659
:1021900031461F23BDE87040FFF74CBA0868D2688B
:1021A000D0F81812CD69CC6BAB4228BF2B46002665
:1021B0000425E41A81F840600D72CC639BB2812142
:1021C000BDE87040FFF72EBA940E0020900E00205C
:1021D0005553425370B5D0F8184200230546237278
:1021E000637284F8653084F864300121FFF7E6F902
:1021F00028468121FFF7E2F904F1140228461F2343
:102200000121BDE87040FFF715BA00BFD0F81822D1
:1022100000230121137251721F231432FFF70ABAEF
:10222000D0F8183200221A72704700BF70B5D0F88B
:102230001842237A022B1AD018D3042B22D8124B1F
:1022400063630023054684F840302372236104F160
:1022500034020D238121FFF7E5F904F11402284629
:102260001F230121BDE87040FFF7E4B970BD074DA1
:1022700094F82110286004F12302054BBDE870405A
:1022800000F004BA70BD00BF55534253900E0020B9
:102290005520000870B5D0F81842237A6BB1012B95
:1022A0000AD12C4D94F82110286004F123022A4B06
:1022B000BDE8704000F0EAB970BDA269E369A263AD
:1022C000E36301210546FFF7BDF91F281DD1234B0C
:1022D000626994F821109A421AD0202305222846D8
:1022E00000F05EFC02236372D5F8184294F82030A7
:1022F0001BB9E3690BB1637A33B381212846FFF739
:1023000065F9637A022B16D070BD94F82110E4E7CA
:102310000129E2D894F82230013B0F2BDDD80D4A79
:102320000F4E1560284604F1230234600D4BBDE8C2
:10233000704000F0ABB904F1140228461F230121BC
:10234000BDE87040FFF776B901212846FFF73EF956
:10235000D3E700BF900E00209D2000085553424354
:10236000940E0020E520000870B5D0F81842637A7A
:10237000022B1CD00A0600D470BD012BFCD00F4BE1
:1023800063630126002305462372236104F13402AE
:1023900084F840600D238121FFF744F9314604F1B0
:1023A000140228461F23BDE87040FFF743B981217E
:1023B000FFF70CF90023637270BD00BF5553425301
:1023C00070B520B11C4D2B681A69EAB1FEE71B4BB2
:1023D0001B68D3F8182292F8653002EBC301013371
:1023E000DBB204254FF4885481F844508C64AB422E
:1023F00082F86530124B08BF82F865001B684FF009
:10240000FF30BDE8704018470C4602460B49186182
:102410000832DA60086823468121FFF703F92A6849
:10242000D36B1B1BD3630BB903231372044B002024
:102430001B68BDE870401847980E0020A80E0020C9
:10244000A40E002000B3134B10B41B68D3F818225D
:1024500092F8653002EBC3010133DBB2042B4FF07D
:1024600002044FF4685008BF002381F84440886498
:1024700082F86530084A094B12681B680521117201
:102480004FF0FF3010BC18470349044A096812682E
:1024900048811047A80E0020980E0020A40E0020AE
:1024A000F0B4002830D0274C274E23684D1E00F191
:1024B00008072D0EDF609966A3F866201861057283
:1024C0009A6ED968531E1B0C4B702268936ED268AB
:1024D000013B1B0A93702268936ED268013BD37054
:1024E00023683168DA6800201071DA685071B3F837
:1024F0006620DC68120AA271DA68B3F86640D4710B
:1025000008225A81F0BC0847104B1B68D3F81822E8
:1025100092F8653002EBC3010133DBB2042B4FF0BC
:1025200002054FF4685481F844508C6418BF82F857
:102530006530054B08BF82F865001B684FF0FF301F
:10254000F0BC1847980E0020A40E0020A80E002012
:10255000F0B4002830D0274B274E1D68002400F12E
:102560000807EF6028610472E86844701868C06862
:1025700084701868C0680825C5701B683568D868FD
:1025800001390E0E0671D8680E0C4671D8680E0A15
:102590008671D868C171D96802200872D968100C98
:1025A0004872D968100A8872DE680C21F2722046DF
:1025B00059812B46F0BC1847104B1B68D3F81822E2
:1025C00092F8653002EBC3010133DBB2042B4FF00C
:1025D00002054FF4685481F844508C6418BF82F8A7
:1025E0006530054B08BF82F865001B684FF0FF306F
:1025F000F0BC1847980E0020A40E0020A80E002062
:1026000070B5D8B11D4B1B68D3F8182292F865300D
:1026100002EBC3010133DBB202244FF46850042BF8
:1026200081F84440886408BF002382F86530144B69
:102630004FF0FF301B68BDE870401847114B1B6816
:10264000022204461A721048FEF7FCF800B970BD69
:102650000A4B1B68D3F8182292F8653002EBC301CD
:1026600001330425DBB24FF48850AB4281F844506B
:102670008864DAD182F86540D9E700BFA80E00204F
:10268000A40E0020980E0020C12300082DE9F0417F
:10269000DFF858E2DFF858828E4C8F4F8F4DD0F81C
:1026A0001862C8F800008EF8001026603A602B60AF
:1026B000107884B05A2800F2BA81DFE810F0D50013
:1026C000B801B8010101B801B801B801B801B801F9
:1026D000B801B801B801B801B801B801B801B80132
:1026E000B8015801B801B801B801B801B801B80182
:1026F000B80179015B00B801B8015B00B801B8010D
:10270000B801B8016100B8016800B801B8018600DD
:10271000B801A000B801B801B801B801B600B8010D
:10272000B801B801B801B801B801B801B801B801E1
:10273000B801B801B801B801B801B801B801B801D1
:10274000B801B801B801B801B801B801B801B801C1
:10275000B801B801B801B801B801B801B801B801B1
:10276000B801B801B801B801B801B801B801B801A1
:10277000B80196010020708104B0BDE8F04118470F
:102780005748FEF709F838B904B0BDE8F08155485C
:10279000FEF702F80028F7D0D8F80030D3F8182256
:1027A00092F8653002EBC3010133DBB202244FF42F
:1027B0006850042B81F84440886400F0758182F8E9
:1027C00065302B684FF0FF30D6E7317A002940F0B2
:1027D000528196F920000028C0F2688196F86520A1
:1027E00006EBC2000132D2B205254FF40054042A90
:1027F00080F84450846410D186F865100FE096F894
:10280000652006EBC2010132D2B207244FF41C50FE
:10281000042A81F84440886424D086F865204FF06B
:10282000FF3004B0BDE8F0411847507810F00200C6
:1028300040F01181F26EB16E8A4205D2B6F8704056
:10284000013A2244914296D896F8652006EBC201DF
:102850000132D2B205244FF40450042A81F84440D6
:102860008864DAD10022D8E7F269002A40F0DF80DC
:10287000002940F050811C480391FDF779FF03992E
:10288000002881D0D8F80030D3F8182292F86530AB
:1028900002EBC3000133DBB2042B4FF002074FF40D
:1028A000685680F84470866414BF82F8653082F8F8
:1028B000651022682B68052111724FF0FF305BE72D
:1028C000FEF75CF8216800F1080200230861CA6085
:1028D000194611E0980E00209C0E0020A40E002046
:1028E00051250008A124000845240008A00E00205E
:1028F000A80E00202268D268D1540133122BF9D1DE
:102900002368DB6870221A702268D3680C20D871A3
:1029100092F8643092F86500984220D002EBC3032D
:10292000D26893F844309370226892F86430D0688B
:1029300002EBC30393F84930037392F86430D06814
:1029400002EBC30393F84830437392F864300133C9
:10295000DBB2042B14BF82F8643082F864101221B9
:102960003B6851811B798B4239D8538137E0FEF7A0
:1029700005F821683B6808610830C8605A78D207BA
:1029800065D4814E1F793279531DBB4228BF3B4627
:102990004B8123B3013B16FA83F3771E01E02268D3
:1029A000D0689A1B13F8011981549F42F7D116E0A1
:1029B000FDF7E4FF754B2268D978106100F1080734
:1029C0000426D7605681C172D268997891702268C6
:1029D0005878D1681A7848702368DB681A702B68B9
:1029E000002004B0BDE8F0411847FDF7C7FF684A72
:1029F0002368D179186100F108070826DF605E813D
:102A0000C173D96890798871D96850794871D9684B
:102A100010790871DB68D178D97023689078DB6809
:102A20005178987023681278DB685970D4E796F86B
:102A3000652006EBC2010132D2B205244FF40050EA
:102A4000042A81F8444088647FF4E7AE0AE707234C
:102A50004B81504E9EE796F8652006EBC20101328D
:102A6000D2B205244FF41050042A81F844408864FF
:102A70007FF4D3AEF6E64848FDF7E4FE00283FF4C5
:102A800083AED8F80030D3F8182292F8653002EB04
:102A9000C30101330424DBB24FF48850A34281F810
:102AA000444088647FF48BAE002388E6D078977822
:102AB00055791479000440EA0760284340EA04206D
:102AC000F066D579B46E127AA04242EA0522A6F8E1
:102AD000702003D28518013DAC4234D896F86510B9
:102AE0004A1C06EBC104D2B24FF404550520042A57
:102AF000A56484F8440086F865203CD0023106EBDA
:102B0000C202C9B24FF40054042982F8440094640C
:102B10003FF4A8AE70E696F8651006EBC1000131EF
:102B2000C9B204294FF002054FF4685480F84450AC
:102B3000846408BF86F865204FF0050218BF86F848
:102B4000651032726BE6B6F86640F56902FB04F474
:102B5000A5427FF443AE8DE824000B4602460F48A1
:102B6000FDF73EFE00283FF40FAE012004B0BDE8A3
:102B7000F041FFF745BD4FF40051012286F84400B3
:102B8000B16486F865204AE650650008F0650008E3
:102B9000E8650008F4650008C12300080126000864
:102BA00010B4D0F8180290F8651000EBC1040131A0
:102BB000C9B21B020429A36408BF002384F844207F
:102BC00014BF80F8651080F8653010BC704700BFF6
:102BD00008B502F003F9044BA3FB0030800900F0B4
:102BE0008FF8002008BD00BFD34D621008B50B4B15
:102BF0001A6842F400721A601A6842F480621A601D
:102C00001A6842F480721A60032000F025F8002050
:102C1000FFF7DEFFFDF7BEFA002008BD003C0240D2
:102C2000024A136801331360704700BF640100203B
:102C3000014B1868704700BF6401002010B582B0D6
:102C40000190FFF7F5FF0446FFF7F2FF019B001B21
:102C50009842F9D302B010BD074AD3684FF6FF017E
:102C60000B40000243F0BF6300F4E06043F4003324
:102C70000343D360704700BF00ED00E0184B70B411
:102C8000DC68C4F30224C4F10706042E04F1040333
:102C900028BF0426062B17D9033C0125A540013D7A
:102CA0002A400123B340013B1940A140002841EADA
:102CB00002010CDB00F1604000F561400901C9B27E
:102CC00080F8001370BC704700221446E9E7054BFA
:102CD00000F00F0009010344C9B2197670BC7047B7
:102CE00000ED00E0FCEC00E000F01F0101234009D2
:102CF000024A8B4042F82030704700BF00E100E0FC
:102D00000138B0F1807F07D2044B002207215860C0
:102D10009A601046196070470120704710E000E08B
:102D2000044A136804280CBF43F0040323F004038F
:102D30001360704710E000E0002839D0F0B4436819
:102D40008768C6680569446981693B430246334325
:102D500000682B430226234382F83560D569166A42
:102D60000768144C0B43516A2B4333433C400429FE
:102D700043EA04030FD00360436923F007031943B8
:102D80000023012441611846D36482F8343082F86C
:102D90003540F0BC704702F1280132C92C4323436F
:102DA0000360436941F0040123F007031943E7E797
:102DB000012070473F8010F0F0B490F83440012CAF
:102DC0002DD004688668022580F8355025680127D3
:102DD00025F0010580F8347025602068402E20F42D
:102DE0008020206063600BBFA260A160E160E260B0
:102DF000236843F010032360236843F00403236037
:102E0000636943F080036361236843F00203236036
:102E1000236843F0010323600020F0BC70470220C8
:102E2000F0BC7047AF4A0368934270B5044614D9AA
:102E3000AD4952F8540C583A8B4258D018318B4255
:102E400000F03F8418318B4200F05885850100F175
:102E5000BD8252684FF480014EE0A44A934216D9D5
:102E6000A349D2F8480302F552728B4200F08B80DE
:102E700018318B4200F0118518318B4200F04685E5
:102E8000800100F1A38212684FF4800180E0994A2A
:102E900093424CD9984952F8540C583A8B4200F05E
:102EA000608418318B4200F04E8418318B4200F060
:102EB0007785810100F18A8252684FF480011142C6
:102EC00040F0A4858C498D4A8B42526800F04684BC
:102ED00018318B4200F0068518318B4214BF4FF039
:102EE00080714FF48021114200F0D48399E00607ED
:102EF00000F16C8252688249114206D05A6912066A
:102F00005BD4784A934240F2818077497D4A8B4274
:102F1000526800F083807C498B4200F0D8831831DE
:102F20008B4214BF4FF080714FF4802177E07749D6
:102F3000724A8B42106800F01F8418318B4200F0F7
:102F4000F78318318B4200F00785850100F13E823E
:102F500012684FF48001114240F058856B49674A6E
:102F60008B42126800F00F8418318B4200F0A3846A
:102F700018318B4214BF4FF080714FF48021114201
:102F800000F0C9814DE0060700F1208212685C491B
:102F9000114240F03B8556495A4A8B42126800F074
:102FA000D58218318B4200F0B68318318B4214BFA2
:102FB0004FF080714FF48021C9E25A694A4922F0EA
:102FC00080028B425A6100F0C7834F4A934200F05F
:102FD000C1834F48834214BF4FF480004FF48030C8
:102FE0004849A26CC860E16C042041F00201002550
:102FF000E16484F8345084F83500002A85D02046F6
:1030000090472368374A93423FF67FAF374A93424F
:10301000C1D8384A93423FF655AF9FE73D49114228
:103020002CD01A68900725D51A682E4922F0020282
:103030008B421A6033D92C4A934200F06F831832C6
:10304000934200F06B843248834214BF4FF080708B
:103050004FF480202B49A26CC860E16C042001432E
:103060000025E16484F8345084F8350032B12046FC
:10307000904723681B4A934240F242851A49214AED
:103080008B4252684AD020498B4200F01783183196
:103090008B4214BF4FF080614FF480113FE0134A20
:1030A000934240F2168102F55672934200F03C833F
:1030B0001832934200F03B841748834214BF4FF00C
:1030C00080704FF480200F49A26C8860E16C04206E
:1030D00001430025E16484F8345084F83500002A67
:1030E000C5D137E25864024070640240B8600240C3
:1030F000106402405860024070600240006002406C
:1031000001008000006402408864024010600240B8
:10311000A06402400400800040640240102111427B
:1031200033D19D499D4A8B42526800F09D809C4955
:103130008B4240F081804FF40061114214BF0122A4
:103140000022002A00F087801A68D10640F18380AF
:103150001A68520340F18A80924A934240F2F68004
:103160001832934200F0E2821832934200F0EB836F
:103170008D498B4214BF4FF000614FF40011874A14
:10318000D160FCE0102111424DD01A68110744D5DE
:103190001A68520315D5834A934240F2ED811832E2
:1031A000934200F0CB821832934200F0EA837E49CA
:1031B0008B4214BF4FF080614FF48011774AD16089
:1031C000F2E11A68D00503D41A6822F008021A60E6
:1031D000744A934200F2FE82744A934200F21682CD
:1031E000734A934240F237831832934200F0C2830D
:1031F0001832934200F0F1836E498B4214BF4FF0B6
:1032000080614FF480116C4AD160312284F83520FE
:10321000226C12B1204690472368624A934280D8BC
:10322000624A934218D965495C4A8B4212681BD0A6
:1032300018318B423FF47FAF18318B4214BF4FF0EF
:1032400000614FF4001178E71B681D0303D5E36BA1
:10325000002B40F09C8070BD554A93426FD958496D
:10326000554A8B425268E3D1202166E71A68D0059F
:1032700003D41A6822F010021A604A4A934200F2FC
:1032800085824A4A934200F29B81494A934240F226
:10329000B2821832934200F04E831832934200F00B
:1032A00093831832934214BF4FF000624FF4001220
:1032B000414BDA60E26CE36BE2641121002284F896
:1032C000351084F83420002BC5D02046BDE870406E
:1032D0001847374A934200F2BF813A4A934200F0BE
:1032E000F2821832934200F03F833748834214BF82
:1032F0004FF080704FF480202F49A26C8860E16C01
:10330000042001430025E16484F8345084F835003A
:10331000002A7FF4ACAE2B49274A8B42126800F09A
:10332000298218318B4200F0C38218318B4214BFBE
:103330004FF080614FF4801111427FF426AF214994
:103340001D4A8B4212687FF473AF8DE7174A934290
:1033500000F24981164A934240F22A82183293427F
:1033600000F0E3821832934200F0318311498B421E
:1033700014BF4FF000614FF400110F4AD1601A687A
:1033800016033FF561AF636C002B3FF464AF20463A
:10339000BDE87040184700BF7064024000640240FE
:1033A0008864024058640240A0640240B860024051
:1033B00058600240A0600240006002401064024079
:1033C0007060024010600240406002401A68550779
:1033D00026D51A68BF4922F004028B421A604CD9E4
:1033E000BD4A934200F09C811832934200F09A82C9
:1033F000BA4883420CBF4FF400204FF00070B84928
:10340000A26CC860E16C042041F001010025E16478
:1034100084F8345084F83500EAB120469047236898
:10342000AC4A934217D8AF4A934248D8AE4A934227
:103430007AD9AE49AE4A8B42526800F09681183173
:103440008B4200F07D8118318B4214BF4FF4800114
:103450004FF4803133E5A049A14A8B4252683FF4D2
:103460004AADA4498B4200F0BB8218318B4214BF95
:103470004FF480014FF480313EE59A4A934230D9AF
:1034800002F55672934200F04D811832934200F0DB
:103490005482994883420CBF4FF400204FF00070D3
:1034A0008F49A26C8860E16C042041F00101002585
:1034B000E16484F8345084F83500002AADD18F4996
:1034C000874A8B4212683FF462AD18318B4200F09C
:1034D000208318318B4214BF4FF480014FF48031A8
:1034E00056E5814A934200F29781854A934200F063
:1034F000E8811832934200F03A82824883420CBF3E
:103500004FF400204FF000707949A26C8860E16CA4
:10351000042041F001010025E16484F8345084F86E
:103520003500002A7FF479AF7549714A8B421268E1
:1035300000F0268118318B4200F0DF8218318B4277
:1035400014BF4FF480014FF4803104E56E491142FD
:103550007FF467AD6949624A8B4212683FF412AE4C
:1035600018318B4200F0D48018318B4214BF4FF0D9
:1035700080614FF4801106E65A4A934259D85A4A5C
:10358000934240F279811832934200F0F58118326B
:10359000934200F01F825D498B4214BF4FF080615F
:1035A0004FF48011524AD1601A6816037FF52DAE90
:1035B0001A6815037FF52CAE412284F8352027E6E2
:1035C00002F55672934200F071811832934200F076
:1035D000C0811832934214BF4FF000624FF40012C2
:1035E0003F4B9A6066E602F55672934200F067819F
:1035F0001832934200F0AA813F498B4214BF4FF02A
:1036000000614FF40011364A9160B8E602F5567237
:10361000934200F060811832934200F0B88136493D
:103620008B4214BF4FF080614FF480112C4A91609F
:10363000EBE502F55672934200F04F811832934247
:1036400000F0A8812C498B4214BF4FF080614FF4E9
:103650008011234A9160A7E71832934200F0468117
:103660001832934200F0AA812848834214BF4FF0D9
:1036700080704FF480201E49A26CC860E16C042069
:1036800001430025E16484F8345084F83500002AB1
:103690007FF4EDAC1549164A8B42526868D0183158
:1036A0008B4200F01C8118318B4214BF4FF08061B7
:1036B0004FF4801111427FF468ADD0E54FF4806182
:1036C0002DE580053FF582AE5268402114E44FF4A9
:1036D0008071A4E45864024070640240A064024017
:1036E00000640240B86002405860024070600240CE
:1036F000006002408864024040640240106402405E
:10370000106002404060024004008000A06002405F
:103710004FF4806137E54FF4807118E7B24899E4BF
:1037200008206CE60820BBE6AF48CCE4202126E563
:1037300081053FF54BAE126840210CE410213DE5B8
:103740004021FFF7BCBB86053FF540AE52684021E3
:10375000FFF7B5BB402043E4A44841E4A249FFF78A
:10376000C2BB05073FF532AE5268A049FFF7A7BBC1
:1037700010219FE71021DFE506073FF527AE12680D
:103780009A49FFF7E8BB9849FFF7F9BB984A93427B
:1037900000F08A801832934200F0D28018329342AF
:1037A00014BF4FF000624FF40012924BDA6081E5D3
:1037B000914A934200F08B801832934200F0ED80E2
:1037C0008E498B4214BF4FF000614FF400118C4AB8
:1037D0009160D4E5864A93427BD01832934200F040
:1037E000CD8088498B4214BF4FF080614FF4801127
:1037F000804AD16009E5804A934266D018329342EC
:1038000000F0C2801832934214BF4FF000624FF4B0
:1038100000127B4B9A604DE51832934268D0183203
:10382000934200F0CE80784883420CBF4FF40020D2
:103830004FF000707249A26CC860E16C042041F046
:1038400001010025E16484F8345084F83500002A31
:103850007FF4E3ADEDE5684A93424BD018329342D2
:1038600000F0A68065498B4214BF4FF080614FF491
:103870008011634A9160C8E45F4A93423CD0183299
:10388000934200F098805D498B4214BF4FF08061F5
:103890004FF480115A4A916086E685053FF596AD52
:1038A00012684021FFF774BB20227EE7202297E6B2
:1038B0004FF4806140E54FF48071FFF760BB202139
:1038C000A1E6082020E6484816E52022A1E72021AD
:1038D0007DE710218CE71021A8E61021B9E64FF40E
:1038E0008061E7E64FF48071FFF7FDBA3E48C2E61B
:1038F00008209FE71021BCE71021CBE701033FF52B
:1039000065AD52684FF48031FFF7F6BA01033FF519
:103910005DAD12684FF48031FFF73ABB4FF4807011
:10392000FFF798BB4FF4007069E5202125E54FF4BF
:103930008070FFF7C8BB2022BAE44FF40070AFE5F7
:103940004FF4006231E74FF4006118E44FF4006176
:1039500059E64FF4006243E600033FF537AD1268C5
:103960004FF48031FFF7F7BA4FF48070C4E44FF49E
:103970000070C9E5102146E4102113E64FF4806180
:1039800036E74FF4806119E44FF4006241E74FF4E9
:1039900080614BE64FF480615BE64FF4006116E70F
:1039A00000033FF513AD52684FF48031FFF787BA3B
:1039B0004FF480615DE74FF480616BE74FF48070F6
:1039C00059E64FF4007035E74FF4006270E44FF4AD
:1039D0000061D2E44FF48061E4E54FF4806112E4C9
:1039E0004021FFF789BA00BF040080000100800079
:1039F0007064024000640240106002404060024077
:103A000000600240A0640240A06002405A691106B2
:103A10007FF577AA5A69404922F080028B425A61A9
:103A20001ED93E4A93425CD0183293425FD03C4844
:103A3000834214BF4FF480004FF480303949A26CA8
:103A40008860E16C042041F002010025E16484F803
:103A5000345084F83500002A7FF4D1AAFFF79BBACE
:103A6000314A93421ED9183293423ED018329342C3
:103A700041D02E48834214BF4FF480004FF4803071
:103A80002B49A26CC860E16C042041F002010025C2
:103A9000E16484F8345084F83500002A7FF4AFAA3A
:103AA000FFF710BA234A93421DD01832934220D018
:103AB0002148834214BF4FF480004FF480301C49EA
:103AC000A26C8860E16C042041F002010025E164F1
:103AD00084F8345084F83500002A7FF490AAFFF768
:103AE0003DBA1648AAE71548E9E71448C8E7402058
:103AF000A4E74020E3E74020C2E74021FFF72BBACC
:103B0000054A93423FF626AD074A93423FF6C2ADBF
:103B100001E44021FFF73CBAB86002401064024063
:103B2000406402400064024058600240A0600240CD
:103B300000600240106002404060024001008000CE
:103B40002DE9F04FD1F800C0DFF8B0E100254FF0CB
:103B5000010802E00135102D7CD008FA05F303EAD4
:103B60000C029342F6D14E6826F0100ABAF1020F09
:103B700072D04FEA45090324D0F800B004FA09F4E2
:103B8000E44306F003070BEA040B07FA09F70AF10E
:103B9000FF3A47EA0B07BAF1010F076040F2838052
:103BA000C7688B683C4003FA09F32343C360F30002
:103BB000D0D54D4B4C4C5B6C25F0030909F1804985
:103BC00043F4804309F59C39636405F00303D9F895
:103BD00008409B000F279F4024EA0704434FB84248
:103BE00074D007F58067B84272D0414FB84272D0A6
:103BF000404FB84273D0404FB8420CBF042705274E
:103C000007FA03F32343C9F80830DEF80030D44341
:103C1000F70354BF23401343CEF80030DEF80430DE
:103C2000B70354BF23401343CEF80430DEF8083006
:103C3000F70254BF23401343CEF80830DEF80C30AF
:103C4000B60205F1010554BF23401343102DCEF8F1
:103C50000C3082D1BDE8F08F4FEAD50900EB89091D
:103C600005F00704D9F82070A4004FF00F0A0AFAF3
:103C700004FB27EA0B0A0F6907FA04F444EA0A0472
:103C8000C9F820404FEA45090324D0F800A004FAFF
:103C900009F4E44306F003070AEA040A07FA09F7FD
:103CA00047EA0A070760876807EA040ACF6807FA45
:103CB00009F747EA0A078760D0F804A0C6F300179F
:103CC0002AEA0303AF401F43476069E7002399E7EF
:103CD00008FA03F396E7022707FA03F392E70327AC
:103CE00007FA03F38EE700BF0038024000000240ED
:103CF00000080240000C024000100240003C01405D
:103D0000002800F00A822DE9F04F04464FF0030925
:103D10008DB0804680F87D93FDF77AFB206801F036
:103D20009BFE58F8106BB8E80F006D460FC5B8E859
:103D30000F000FC5D8F800302B60231D0B933046C1
:103D40000ECB01F025FE0021206801F08DFE00253C
:103D500001264FF0020E4FF0040B4FF0050A4FF012
:103D600008014FF0060C072009220A2384F88890E6
:103D700084F86CE084F8356084F8516084F8506011
:103D800084F86D6084F8896084F8A56084F8C16067
:103D900084F8345084F83750E5632564A56484F8CA
:103DA0005350A565E565656684F86F506567A5673E
:103DB000C4F8805084F88B50C4F89050C4F89450E4
:103DC000C4F89C5084F8A750C4F8AC50C4F8B05064
:103DD000C4F8B85084F8A4B084F8C0A084F8C350E4
:103DE00084F814114FF00B0184F8DCC084F8F8005B
:103DF00084F8302184F84C31C4F8C850C4F8CC5051
:103E0000C4F8D45084F8DD6084F8DF50C4F8E4507E
:103E1000C4F8E850C4F8F05084F8F96084F8FB5016
:103E2000C4F80051C4F80451C4F80C5184F8156169
:103E300084F81751C4F81C51C4F82051C4F8285113
:103E400084F8316184F83351C4F83851C4F83C51D6
:103E5000C4F8445184F84D6184F84F51C4F854516A
:103E6000C4F85851C4F8605184F868114FF00C013F
:103E700084F884114FF00D01276884F8A0114FF0E9
:103E80000E0184F8BC114FF0080184F8696184F8D0
:103E90006B51C4F87051C4F87451C4F87C5184F863
:103EA000856184F88751C4F88C51C4F89051C4F8E6
:103EB000985184F8A16184F8A351C4F8A851C4F8BA
:103EC000AC51C4F8B45184F8BD6184F8BF51C4F852
:103ED000C451C4F8C851C4F8D05184F8D95184F8F9
:103EE000D851658784F8DB51C4F8E051C4F8E45137
:103EF000C4F8EC51C7F8045184F8F55184F8F46122
:103F0000A4F8566084F8F751C4F8FC51C4F8005284
:103F1000C4F80852C7F8085184F810E2A4F872E017
:103F200084F8115284F81352C4F81852C4F81C5281
:103F3000C4F82452C7F80C5184F82C92A4F88E903F
:103F400084F82D5284F82F52C4F83452C4F83852F1
:103F5000C4F84052C7F8105184F8495284F848B266
:103F6000A4F8AAB084F84B52C4F85052C4F8545282
:103F7000C4F85C52C7F8145184F8655284F864A2FE
:103F8000A4F8C6A084F86752C4F86C52C4F8705202
:103F9000C4F87852C7F8185184F880C2A4F8E2C077
:103FA00084F8815284F88352C4F88852C4F88C5241
:103FB000C4F89452C7F81C5184F89C02A4F8FE007F
:103FC00084F89D5284F89F52C4F8A452C4F8A852B1
:103FD000C4F8B052C7F8205184F8B8124FF0080165
:103FE000A4F81A114FF00B0184F8B95284F8BB52AF
:103FF000C4F8C052C4F8C452C4F8CC52C7F8245113
:1040000084F8D55284F8D422A4F8362184F8D75203
:10401000C4F8DC52C4F8E052C4F8E852C7F828519A
:1040200084F8F032A4F8523184F8F15284F8F35253
:10403000C4F8F852C4F8FC52C4F80453C7F82C5121
:1040400084F80C134FF00B01A4F86E114FF00C0123
:1040500084F80D5384F80F53C4F81453C4F818535C
:10406000C4F82053C7F8305184F828134FF00C01DE
:10407000A4F88A114FF00D0184F8295384F82B53CA
:10408000C4F83053C4F83453C4F83C53C7F834511F
:1040900084F844134FF00D0184F84553A4F8A61199
:1040A0004FF00E0184F84753C4F84C53C4F85053F2
:1040B000C4F8585304F1100EC7F8385184F860134F
:1040C00084F8615384F86353BEE80F00EC464FF068
:1040D0000E09A4F8C291C4F86853C4F86C53C4F82C
:1040E0007453C7F83C51ACE80F00BEE80F00ACE8D1
:1040F0000F00D8F80030CCF800300B9A38460ECAC2
:1041000001F0CCFC84F87D6384F87C53206802F0D5
:104110007BF828460DB0BDE8F08F0120704700BF46
:1041200090F87C33012B01D10220704710B5012398
:10413000044680F87C33006802F05AF8206801F0E9
:1041400083FC002084F87C0310BD00BF90F87C3312
:10415000012B01D10220704710B50123044680F8DD
:104160007C33006801F078FC206801F0CFFF206804
:1041700002F04AF8002084F87C0310BD2DE9F04FCE
:10418000D0F8008087B00446404602F079F810B1BC
:1041900007B0BDE8F08F0646206802F041F800281D
:1041A000F6D0206802F03CF810F0020F20681CBF27
:1041B0000223436102F034F8000300F1A0814FF0C4
:1041C000000A206802F02CF8420300F1CC8020683D
:1041D00002F026F80028C0F20E82206802F020F8D3
:1041E000010549D4206802F01BF8C3047ED420687E
:1041F00002F016F810F4005F20685AD102F010F8AF
:1042000010F0100F206812D0836923F0100383612F
:10421000D8F82050C5F34343022B05F00F0600F0F9
:10422000CD81062B32D0836943F01003836101F006
:10423000F7FF070700F15C81206801F0F1FFC6027B
:1042400000F14C81206801F0EBFF850200F13C8118
:10425000206801F0E5FF400000F12E81206801F0A8
:10426000DFFF410794D523685D686A0700F18B8101
:104270005A6815435D608BE7D8F80838DA0700F113
:10428000908120684FF400634361ACE7082204F595
:1042900060714046C6EBC60601F0ECFE04EB8602F8
:1042A000C5F30A13D2F8F01120680B44C2F8F031BC
:1042B000B9E701F0E9FF2068C36823F47053C360D5
:1042C00001F0D2FC2268002840F06281D368E060EF
:1042D0004FF4007143F410536161D3602046FDF741
:1042E000E1F820684FF40053436187E708F5006563
:1042F0006B68206823F0010300216B6001F092FCE1
:10430000606850B108F51063FF22013686429A605A
:10431000C3F8082203F12003F7D14FF0FF33AB615C
:10432000EB69E26A43F00113EB61002A00F03D8182
:10433000D5F8843043F00B03C5F884306B6C43F040
:104340000B036B64D8F80038217C206823F4FE63EB
:10435000C8F8003804F5607201F0B2FF20684FF42D
:104360008053436144E7206801F066FF83460028DC
:1043700000F07D81254608F510694FF0000ACDF860
:104380000880039609E05FEA5B0B0AF1010A05F178
:104390001C0509F1200900F0EC801BF0010FF2D0A0
:1043A0005FFA8AF73946206801F058FFC3070646CE
:1043B00018D5029B2069D3F83418012202FA0AF2B8
:1043C00021EA0202C3F8342801239842C9F80830D0
:1043D00000F02D8139462046FDF756F82169012964
:1043E00000F01781300744BF0823C9F80830F106F0
:1043F00044BF1023C9F80830720644BF4023C9F8EF
:104400000830B30744BF0223C9F808303006BAD5D4
:104410002368AA6CE96C0493184600F51068EB6BEE
:10442000561A08EB4A189E4228BF1E46D8F8183084
:10443000F01C48BFB01D9BB2B3EBA00F2BD38A4238
:1044400029D942B3CDF814A0296CDDF810A001E001
:1044500073451ED2237C00933A46B3B2504601F016
:10446000F3FDEB6CD5F848E0E86B296CD8F8182020
:104470003344AEEB030C84453144664628BF064600
:10448000F01C92B248BFB01DB2EBA00FEB642964E0
:10449000DED2DDF814A0002E3FF775AF049B012299
:1044A000D3F8341802FA0AF221EA0202C3F83428D7
:1044B0002046FDF731F866E72046FDF725F820682D
:1044C0004FF080434361CAE620465FFA8AF1FDF768
:1044D00013F820684FF400134361BAE620465FFAF0
:1044E0008AF1FDF70DF820684FF480134361AAE6C6
:1044F0002046FCF7D3FF2068082343619DE620682F
:1045000001F092FE054600283FF459AE08F53067E9
:10451000A1464FF0000A029607E06D080AF1010A71
:1045200007F1200709F11C0921D0E907F5D55FFA49
:104530008AF63146206801F087FE10F0010F8346AD
:104540000CD0226901239A42BB6000F08280314680
:104550002046FCF78FFF216901296DD01BF0080F61
:104560000BD11BF0100F1CBF1023BB60D5E7029EC0
:1045700027E6DDF80880039E29E62046FCF774FF55
:104580000823BB60EDE72046FCF7C2FF23686FE617
:10459000D368032043F4A0534021E0606161D360FD
:1045A0009CE62046FCF78EFF6BE66B6943F00B033D
:1045B0006B612B6943F00B032B61C3E647F6F07385
:1045C0001D423FF430AEC6EBC60604EB8606C5F3CB
:1045D0000A152A464046D6F8E41101F04BFDD6F8FC
:1045E000E421D6F8F03120682A442B44C6F8E421AF
:1045F000C6F8F03117E6D8F8042822F00102204668
:10460000C8F80428FCF76CFF20684FF000434361B2
:10461000E4E5BAF1000F7FF4E5AEA36C002B7FF464
:10462000E1AE04F56072206801F04AFEDAE62B6C18
:10463000EA6B13442B64CDE6BAF1000F8ED1D4F8A7
:10464000EC31002B8AD104F56072206801F038FE4D
:1046500084E73A69D9F8E001D9F8E411C2F312020B
:10466000821A0144C9F8F021C9F8E4116FE78246C3
:10467000ADE500BF90F87C33012B01D102207047DB
:1046800010B50123044680F87C33006801F0A0FDDA
:10469000002084F87C0310BD70B50C061BD4C1EB60
:1046A000C10500EB85051C24002604FB010485F8E8
:1046B000D811C5F8E02185F8DB3185F8D96104F51A
:1046C000EC71022B04BF00230B7190F87C33012B9B
:1046D00016D1022070BD01F07F01C1EBC10500EBD6
:1046E00085051C24012604FB010485F83410698724
:1046F000EA6385F8373085F8356004F13401E0E786
:104700000123044680F87C33006801F0C9FA0020D8
:1047100084F87C0370BD00BF4AB2002A10B504467D
:1047200018DB1C2303FB010303F5EC73D20F5A7053
:10473000197094F87C23012A01D1022010BD0122B6
:10474000194684F87C23206801F0F2FA002084F8EE
:104750007C0310BD01F07F011C2303FB01033433F4
:10476000E4E700BF38B501F07F05C5EBC50400EBF9
:1047700084040021C4F8E421C4F8EC3184F8D85151
:10478000C4F8F01184F8D9110369012B08BFC4F8EB
:10479000E82190F87C23012A17D01C2101FB050198
:1047A000012280F87C23044601F5EC71DAB200683E
:1047B0002DB101F0E9FA002084F87C0338BD01F046
:1047C000BFFB002084F87C0338BD022038BD00BF49
:1047D00001F07F01C1EBC10100EB8101B1F8F001F3
:1047E000704700BF70B501F07F05C5EBC50400EB55
:1047F0008404012100262264A36484F83450E66412
:1048000084F8351003698B4208BF626490F87C23FA
:10481000012A16D01C2101FB0501012280F87C230E
:1048200004463431DAB200682DB101F0ADFA00204F
:1048300084F87C0370BD01F083FB002084F87C03C6
:1048400070BD022070BD00BF38B54BB2002B0C46C6
:10485000054619DB1C2101FB040101F5EC71DB0F9E
:1048600001224B700C708A7095F87C33934201D111
:10487000022038BD85F87C23286801F011FC54B172
:10488000002085F87C0338BD01F07F041C2101FB6A
:1048900004013431E3E705F56072297C286801F0F2
:1048A0000FFDEDE74AB2002A38B505461ADB1C2396
:1048B00003FB010303F5EC73D20F00245A70197047
:1048C0009C7095F87C23012A01D1022038BD012279
:1048D000194685F87C23286801F000FC85F87C43A4
:1048E000204638BD01F07F011C2303FB0103343354
:1048F000E2E700BF90F87C33012B0DD0012310B507
:1049000080F87C330B06044608D4006801F09CF95B
:10491000002084F87C0310BD0220704701F07F0165
:10492000006801F07FF9002084F87C0310BD00BF0F
:1049300030B405686C6AD1B1AB6A013904EB134439
:104940000CD000231846403305EB830301305B682D
:10495000C0B2884204EB13440346F4DB403105EB5C
:10496000810144EA02444C60002030BC704744EAB4
:104970000244AC62002030BC704700BF03680020D6
:1049800059627047F8B50368DA07064624D5A04A8D
:10499000936803F00C03042B79D0936803F00C03A5
:1049A000082B71D09B4B9A4C00221A70FEF740F9ED
:1049B000054606E0FEF73CF9401BB0F5FA7F00F231
:1049C000A48023689F03F5D4924B32791A707368E0
:1049D000002B40F00E813368990736D4180715D59F
:1049E0007369002B00F0A9808B4B894C01221A605F
:1049F000FEF71EF9054605E0FEF71AF9401B64288C
:104A000000F28380636F9907F6D533685B0740D463
:104A1000B369C3B17E4CA36803F00C03082B36D0F6
:104A20007E4B00221A60FEF703F9054604E0FEF70C
:104A3000FFF8401B642868D823689A01F7D4B3694B
:104A4000022B00F09A800020F8BD714A916811F0A5
:104A50000C0F5FD0916801F00C01082957D0F36862
:104A6000002B7AD06E4B6A4C01221A60FEF7E0F8F8
:104A7000054604E0FEF7DCF8401B642845D82368AF
:104A80009B07F7D5336848E053685B028AD501205D
:104A9000F8BD5F4A634C136C43F080531364236882
:104AA00043F480732360FEF7C3F8054604E0FEF785
:104AB000BFF8401B642828D82368DF05F7D55A4B78
:104AC000534C00221A70FEF7B3F841F288350746BE
:104AD00004E0FEF7ADF8C01BA84216D8236F980774
:104AE000F7D4514B327A1A70B368002B90D0FEF78E
:104AF0009FF8474C074641F28835236F990787D4C2
:104B0000FEF796F8C01BA842F7D90320F8BD5268FB
:104B10005202A4D4F268012AB9D13D4CF82220688F
:104B200092FAA2F2B2FA82F23169D2B220F0F8001F
:104B300001FA02F20243226050E7374A344C136014
:104B4000FEF776F8054604E0FEF772F8401B64288D
:104B5000DBD8636F9A07F7D457E7314A2C4C1360C0
:104B6000FEF766F8054604E0FEF762F8401B64288D
:104B7000CBD823689F07F7D484E747F6C07191FA32
:104B8000A1F1B1FA81F14FF4403797FAA7F7B7FADC
:104B900087F74FF0706595FAA5F5B5FA85F5336A94
:104BA000D6F81CC0B26AD6F824E0F06AC9B243EA6B
:104BB0000C035208FEB243F000530EFA01F7013A1B
:104BC000E9B2B2403B43134300FA01F21349104DDE
:104BD0001343012263600A60FEF72AF8044604E0EA
:104BE000FEF726F8001B64288FD82B689B01F7D5A9
:104BF00029E7FEF71DF8064C0546236898033FF5A4
:104C0000EAAEFEF715F8401BB0F5FA7FF5D97CE760
:104C10000038024002380240800E4742600047429E
:104C2000000047420070004070380240694A136833
:104C300003F00F038B422DE9F0410C46054609D2E3
:104C4000CBB21370136803F00F03994255D00120C3
:104C5000BDE8F08103689A0706D55F4980688A68D5
:104C600022F0F00202438A60DF0724D56A685A4BBB
:104C7000012A1B6800F08780022A00F08B809907C8
:104C8000E5D5554EB36823F003031343B360FDF736
:104C9000CFFF6B68012B074641F2883862D0022BA8
:104CA00005D16AE0FDF7C4FFC01B40456FD8B3686B
:104CB00013F00C0FF6D1474BE2B21A701B6803F0E9
:104CC0000F039C42C3D12B685A0706D54249E868B6
:104CD0008A6822F4E05202438A601B0707D53E4AE5
:104CE0002969936823F4604343EAC1039360002079
:104CF000FDF76EFF0020BDE8F08103689F0706D531
:104D0000354980688A6822F0F00202438A60DE0733
:104D1000DAD56A68304B012A1B6858D0022A53D072
:104D2000990794D52C4CA36823F003031343A36085
:104D3000FDF77EFF6B68012B064641F2883732D0C3
:104D4000022B05D13AE0FDF773FF801BB8421ED855
:104D5000A36813F00C0FF6D1B5E7FDF769FFC01B90
:104D6000404514D8B36803F00C03042BF5D1A2E737
:104D7000FDF75EFFC01B404509D8B36803F00C0384
:104D8000082BF5D197E79E033FF57BAF5FE7032044
:104D9000BDE8F08198013FF574AF58E7FDF748FF93
:104DA000801BB842F3D8A36803F00C03042BF5D1A1
:104DB00089E7FDF73DFF801BB842E8D8A36803F000
:104DC0000C03082BF5D17EE79801ABD43FE79C0399
:104DD000A8D43CE7003C02400038024038B52E4CD5
:104DE000A36803F00C03042B3BD0082B26D1656885
:104DF00063685B0205F03F0539D4606847F6C0720E
:104E000092FAA2F3B3FA83F31040DBB220FA03F371
:104E10002248B0FBF5F000FB03F01F4B4FF440328B
:104E20005B6892FAA2F2B2FA82F203F44033D2B291
:104E3000D34001335B00B0FBF3F000E01748164AA3
:104E4000F023926893FAA3F3B3FA83F302F0F0022B
:104E5000DBB222FA03F31249124ACB5CD84010604D
:104E600038BDFBF79DF9104B03FB00F0E7E7FBF7BC
:104E700097F9626847F6C07494FAA4F1B1FA81F127
:104E8000094B2240C9B2CA4003FB00F0B0FBF5F069
:104E900000FB02F0C1E700BF003802400024F4002C
:104EA000FC650008E000002040420F00F8B506460F
:104EB0000C461546FDF7BCFE07466B1C306805D155
:104EC000836834EA0303FBD10020F8BD836834EA29
:104ED0000303F9D02DB1FDF7ABFEC01B8542ECD228
:104EE00030684368B26A23F0E00343600368B2F5B8
:104EF000005F23F04003036007D1036823F40053ED
:104F00000360036843F4005303600122002386F822
:104F1000512086F850300320F8BD00BF00283BD058
:104F2000F8B590F85130044603F0FF02002B2ED064
:104F3000A7686368E66825696269E069216A3B439E
:104F400033432B431343A7692668A56A626A034368
:104F5000022084F8510030680B43390C2B4307F4CE
:104F6000007701F004013B430A4320F04000E16A6E
:104F70003060336072603161F369002223F40063B2
:104F80000121F3611046626584F85110F8BD80F884
:104F90005020FBF70FF9CBE70120704770B590F870
:104FA000516082B0F6B2012E069D04D0222E02D0AE
:104FB000022002B070BD00294FD0002A4DD0002B36
:104FC0004BD090F85040012CF2D090F851408263C1
:104FD0000126B44280F85060866A838708BF322475
:104FE0004FF0000208BF80F85140B6F5005F4265FF
:104FF0008264C264C38701638386C386026800F04B
:1050000018811468640603D4146844F040041460E2
:105010000446C068B0F5006F606800F0B380F8B96E
:10502000481C2063013B0978D1609BB2E386DBB961
:10503000B6F5005F00F08081FDF7FAFD0646681CBA
:10504000226840F092809368D907FCD5A36BD268A0
:105050001A70E38F013BE38735E0012002B070BD99
:10506000B0F5827F00F05E81FDF7E2FD0646681C28
:10507000226844D193689907FCD5216BE38E481CC4
:105080002063013B0978D1609BB2E3861BB9A36A18
:10509000B3F5005F64D0FDF7CBFD0646681C2268BF
:1050A00053D19368D907FCD5A36BD268591CA1636F
:1050B0001A70E38FE28E013BE387002AD4D1636844
:1050C000002B00F07F81A36AB3F5005F00F0398107
:1050D000FDF7AEFD06466B1C226840F0B380936876
:1050E0001806FCD4A36A012084F85100B3F5005FD0
:1050F000916800F08481002084F8500059E793689B
:105100009B07BAD42DB1FDF793FD801B8542AED22B
:1051100022685368A16A23F0E00353601368B1F575
:10512000005F23F04003136007D1136823F400539A
:105130001360136843F4005313600122002384F8C2
:10514000512084F85030032033E79368DB07ABD459
:10515000002DDED0FDF76CFD801B85429ED2D7E787
:10516000136843F48053136095E79368DB073FF5BA
:105170006DAF002DCDD0FDF75BFD801B8542BFF4E8
:105180005EAFC5E7002800F08E80B0F5827F00F0AA
:105190000A81FDF74DFD0646681C226832D19368EE
:1051A0009907FCD5E38E216B013B31F8020BD060EF
:1051B0009BB2E38621631BB9A36AB3F5005F6DD090
:1051C000FDF736FD0646681C226826D19368D9078C
:1051D000FCD5A16BD36821F8023BE38FE28EA1637B
:1051E000013BE387002AD4D16368002B7FF46BAFC7
:1051F0002A4601212046FFF759FE002800F01281BF
:105200000320D6E693689B07CCD4002D81D0FDF710
:105210000FFD801B8542BFD27AE79368DB07D8D4A5
:10522000002D3FF476AFFDF703FD801B8542CAD207
:105230006EE7146824F400541460146844F40054B5
:105240001460DEE6936819067FF54CAF35B1FDF7C3
:10525000EFFC801B8542BFF43EAF22685368A16A11
:1052600023F0E00353601368B1F5005F23F04003BF
:10527000136007D1136823F400531360136843F4D9
:1052800000531360012384F85130636D002243F012
:105290002003636584F8502003208AE6136843F4F2
:1052A000805313608CE7013B31F8020BD0609BB256
:1052B0002163E386002B7FF46CAFB6F5005F7CD0F2
:1052C000FDF7B6FC0646681C23680BD19A68D10727
:1052D000FCD5A26BDB6822F8023BE38FA263013BA3
:1052E000E387F0E69A68D207F3D42DB1FDF7A0FC6E
:1052F000801B8542E7D223685A68A16A22F0E00247
:105300005A601A68B1F5005F22F040021A607FF41B
:1053100014AF1A6822F400521A601A6842F400525C
:105320001A600AE7012B7FF49FAE4B1C23630B78B6
:10533000D3600023E3867BE6136843F48053136055
:105340007AE6FDF775FC0646681C236809D19A6861
:10535000D107FCD5DB689BB2ADF80630BDF806304E
:10536000B6E69A68D207F5D42DB1FDF761FC801B33
:105370008542E9D223685A68A16A22F0E0025A60A5
:105380001A68B1F5005F22F040021A604CD0012388
:1053900084F85130636D002243F00203636584F8A2
:1053A0005020032005E6012B7FF4F3AE31F8020B09
:1053B000D06000232163E3867FE7136843F48053C2
:1053C00013607DE7FDF734FC0646681C23680BD1AB
:1053D0009A68D107FCD5A26BDB68511CA1631370DE
:1053E000E38F013BE3876EE69A68D207F3D4002D82
:1053F00082D0FDF71DFC801B8542E6D27BE7CB0601
:105400007FF579AE636D43F002036365136823F49F
:10541000005313601368002143F40053136084F8B1
:105420005010C6E5236854E71A6822F400521A6047
:105430001A6842F400521A60A9E700BF70B590F8EC
:105440005140E4B2012C0AD04568B5F5827F01D005
:10545000022070BD8568002DFAD1222CF8D10029D8
:1054600055D0002A53D0002B51D090F85040012C39
:10547000EED090F851400163222C1CBF322480F8FA
:105480005140846A838600210125B4F5005F41659F
:105490008164C16480F85050C38682638387C38768
:1054A000016836D090F85140466C222C07BF1D4D44
:1054B0001D4C1E4D1E4C3564F4631E4DB5640446F0
:1054C0000C313046FDF778FC2268E38E5668206C7C
:1054D000216B46F00106566094F85160322E18BFD9
:1054E000002500260C328564C663FDF765FC236841
:1054F00084F850601A68520603D41A6842F04002D9
:105500001A605A6842F002025A60002070BD012001
:1055100070BD0C6824F400540C600C6844F4005412
:105520000C60BFE7415500087D5500085155000843
:10553000155800085D550008704700BF704700BF50
:1055400008B5806BFFF7FAFF08BD00BF704700BFCA
:1055500008B5806BFFF7FAFF08BD00BF806B08B588
:10556000012380F85130436D002243F0100343655E
:10557000C286C287FBF7B2FD08BD00BF30B5036825
:10558000846B1B68D90583B02AD4A368C3B9636848
:10559000B3F5827F54D022685368A16A23F00103D7
:1055A0000020B1F5005F5360E0871ED0012384F82E
:1055B0005130636D2046A3B1FBF790FD03B030BDC1
:1055C0006268B2F5827FE6D1B3F5004F226802D05F
:1055D000B3F5806FE0D1136823F040031360DBE77D
:1055E0002046FFF7A9FF03B030BDFDF721FB0546BC
:1055F00004E0FDF71DFB401B02286CD823689A6865
:10560000D007F6D5DB689BB2ADF80430BDF80430A6
:10561000FDF70EFB054604E0FDF70AFB401B0228E0
:1056200039D823689A68D107F6D49A68D206BDD5CE
:10563000626D6FF0100142F0020262659960B5E799
:10564000A36AB3F5005F00F0A680FDF7F1FA054606
:1056500004E0FDF7EDFA401B02287CD823689A6825
:105660009107F6D55A6822F002025A60FDF7E0FA77
:10567000054604E0FDF7DCFA401B02284BD82368FE
:105680009A681206F6D45A68002122F001025A6084
:10569000E186E1878AE72368A16A5A6822F0E0027E
:1056A0005A601A68B1F5005F22F040021A6007D113
:1056B0001A6822F400521A601A6842F400521A6002
:1056C000012284F85120626D002142F020026265BF
:1056D00084F85010A9E72368A16A5A6822F0E00212
:1056E0005A601A68B1F5005F22F040021A6007D1D3
:1056F0001A6822F400521A601A6842F400521A60C2
:10570000012284F85120626D002142F0200262657E
:1057100084F8501076E72368A16A5A6822F0E00204
:105720005A601A68B1F5005F22F040021A6007D192
:105730001A6822F400521A601A6842F400521A6081
:10574000012284F85120626D002142F0200262653E
:1057500084F8501097E72368A16A5A6822F0E002A3
:105760005A601A68B1F5005F22F040021A6007D152
:105770001A6822F400521A601A6842F400521A6041
:10578000012284F85120626D002142F020026265FE
:1057900084F8501066E7FDF74BFA054604E0FDF784
:1057A00047FA401B022815D823689A68D207F6D515
:1057B000DA6892B2ADF80620BDF806209A68D006E5
:1057C0007FF543AF626D6FF0100142F00202626537
:1057D00099603AE72368A16A5A6822F0E0025A60A9
:1057E0001A68B1F5005F22F040021A6007D11A680A
:1057F00022F400521A601A6842F400521A60012220
:1058000084F85120626D002142F02002626584F824
:105810005010CDE730B50368846B1B68D90583B0A1
:1058200032D4A36AB3F5005F34D0FDF701FA054620
:1058300004E0FDF7FDF9401B022849D823689A6867
:105840009107F6D55A6822F002025A60FDF7F0F986
:10585000054604E0FDF7ECF9401B022858D8236800
:105860009A681206F6D45A68012122F001025A60A1
:1058700084F85110626D0023E386E38720462AB93D
:10588000FBF73AFA03B030BD2046F9E7FBF726FCF8
:1058900003B030BDFDF7CCF9054604E0FDF7C8F9CB
:1058A000401B022854D823689A68D207F6D5DA68D4
:1058B00092B2ADF80620BDF806209A68D006B4D59D
:1058C000626D6FF0100142F0020262659960ACE710
:1058D0002368A16A5A6822F0E0025A601A68B1F59A
:1058E000005F22F040021A6007D11A6822F40052C9
:1058F0001A601A6842F400521A60012284F851209A
:10590000626D002142F02002626584F8501099E730
:105910002368A16A5A6822F0E0025A601A68B1F559
:10592000005F22F040021A6007D11A6822F4005288
:105930001A601A6842F400521A60012284F8512059
:10594000626D002142F02002626584F850108AE7FF
:105950002368A16A5A6822F0E0025A601A68B1F519
:10596000005F22F040021A6007D11A6822F4005248
:105970001A601A6842F400521A60012284F8512019
:10598000626D002142F02002626584F850108EE7BB
:1059900084B030B4089D03AC012D84E80E0027D0FC
:1059A000C268284B42F04002C26001E0013B0DD0CA
:1059B0000269002AFADA0269224B42F0010202610E
:1059C00001E0013B02D00269D207FAD44FF48033E0
:1059D0008363069B012B07D1836843F00C0383602C
:1059E000836843F02003836030BC002004B070471C
:1059F000836B0E9A23F480338363C36823F4840398
:105A000023F04003C360C368012A23F44013C3603A
:105A100012D00C4B01E0013BDBD00269002AFADA1C
:105A20000269084B42F00102026101E0013BD0D063
:105A30000269D107FAD4CCE7C36843F48013C3608A
:105A4000E7E700BF400D030002460020936843F0E3
:105A500001039360704700BF02460020936823F063
:105A600001039360704700BF08B5C368012923F0A4
:105A7000C043C36009D019B9C36843F08043C36011
:105A80003220FDF7DBF8002008BDC36843F0005367
:105A9000C3603220FDF7D2F8002008BD84B02DE9A4
:105AA000F04308AC84E80E00836BDDF84490DDF829
:105AB0002CE043F400238363B9F1000F03D1836B1F
:105AC00043F4001383630023C0F8003E0D9BD0F81D
:105AD0000028C0F80028012B00F5006400F08E803B
